{
  "_format": "hh-sol-artifact-1",
  "contractName": "EduOracle",
  "sourceName": "contracts/EduOracle.sol",
  "abi": [
    {
      "inputs": [
        {
          "internalType": "address",
          "name": "vrfCoordinator",
          "type": "address"
        },
        {
          "internalType": "address",
          "name": "link",
          "type": "address"
        },
        {
          "internalType": "bytes32",
          "name": "_keyhash",
          "type": "bytes32"
        },
        {
          "internalType": "uint256",
          "name": "_fee",
          "type": "uint256"
        }
      ],
      "stateMutability": "nonpayable",
      "type": "constructor"
    },
    {
      "anonymous": false,
      "inputs": [
        {
          "indexed": false,
          "internalType": "bytes32",
          "name": "",
          "type": "bytes32"
        },
        {
          "indexed": false,
          "internalType": "uint256",
          "name": "",
          "type": "uint256"
        }
      ],
      "name": "LuckyStudent",
      "type": "event"
    },
    {
      "anonymous": false,
      "inputs": [
        {
          "indexed": false,
          "internalType": "bytes32",
          "name": "",
          "type": "bytes32"
        },
        {
          "indexed": false,
          "internalType": "uint256",
          "name": "",
          "type": "uint256"
        }
      ],
      "name": "RandomnessRequested",
      "type": "event"
    },
    {
      "anonymous": false,
      "inputs": [
        {
          "indexed": false,
          "internalType": "uint256",
          "name": "",
          "type": "uint256"
        },
        {
          "indexed": false,
          "internalType": "uint256",
          "name": "",
          "type": "uint256"
        }
      ],
      "name": "StudentCreated",
      "type": "event"
    },
    {
      "inputs": [
        {
          "internalType": "uint256",
          "name": "_groupId",
          "type": "uint256"
        }
      ],
      "name": "createStudent",
      "outputs": [],
      "stateMutability": "payable",
      "type": "function"
    },
    {
      "inputs": [
        {
          "internalType": "uint256",
          "name": "_studentId",
          "type": "uint256"
        }
      ],
      "name": "isLucky",
      "outputs": [],
      "stateMutability": "nonpayable",
      "type": "function"
    },
    {
      "inputs": [
        {
          "internalType": "bytes32",
          "name": "requestId",
          "type": "bytes32"
        },
        {
          "internalType": "uint256",
          "name": "randomness",
          "type": "uint256"
        }
      ],
      "name": "rawFulfillRandomness",
      "outputs": [],
      "stateMutability": "nonpayable",
      "type": "function"
    }
  ],
  "bytecode": "0x60c060405234801561001057600080fd5b5060405161083338038061083383398101604081905261002f9161007d565b6001600160a01b0393841660a05292909116608052600555600655600780546001600160a01b031916331790556100c0565b80516001600160a01b038116811461007857600080fd5b919050565b6000806000806080858703121561009357600080fd5b61009c85610061565b93506100aa60208601610061565b6040860151606090960151949790965092505050565b60805160a0516107406100f360003960008181610257015261041d01526000818161012801526103ee01526107406000f3fe6080604052600436106100345760003560e01c806377cfad251461003957806394985ddd1461005b578063b10bfa581461007b575b600080fd5b34801561004557600080fd5b506100596100543660046105ed565b61008e565b005b34801561006757600080fd5b50610059610076366004610606565b61024c565b6100596100893660046105ed565b6102d2565b6007546001600160a01b031633146100f75760405162461bcd60e51b815260206004820152602160248201527f4f6e6c792061646d696e2063616e2063616c6c20746869732066756e6374696f6044820152603760f91b60648201526084015b60405180910390fd5b6006546040517f70a082310000000000000000000000000000000000000000000000000000000081523060048201527f00000000000000000000000000000000000000000000000000000000000000006001600160a01b0316906370a0823190602401602060405180830381865afa158015610177573d6000803e3d6000fd5b505050506040513d601f19601f8201168201806040525081019061019b9190610628565b10156101e95760405162461bcd60e51b815260206004820152600f60248201527f4e6f7420656e6f756768204c494e4b000000000000000000000000000000000060448201526064016100ee565b60006101f96005546006546103ea565b60008181526003602090815260409182902085905581518381529081018590529192507f49cdaa45e000eb9a419ae3b028f7f7bec2179153ebe33293f31286642842132691015b60405180910390a15050565b336001600160a01b037f000000000000000000000000000000000000000000000000000000000000000016146102c45760405162461bcd60e51b815260206004820152601f60248201527f4f6e6c7920565246436f6f7264696e61746f722063616e2066756c66696c6c0060448201526064016100ee565b6102ce8282610565565b5050565b6007546001600160a01b031633146103365760405162461bcd60e51b815260206004820152602160248201527f4f6e6c792061646d696e2063616e2063616c6c20746869732066756e6374696f6044820152603760f91b60648201526084016100ee565b6000604051806060016040528061034c60015490565b8152602001838152602001600015158152509050806002600061036e60015490565b8152602080820192909252604090810160002083518155918301516001808401919091559201516002909101805460ff1916911515919091179055805481019055805160208083015160408051938452918301527f29358ba910ee1777e26b0ecfe36155daf0293714fc5dad62ec4287dda7f83c049101610240565b60007f00000000000000000000000000000000000000000000000000000000000000006001600160a01b0316634000aea07f00000000000000000000000000000000000000000000000000000000000000008486600060405160200161045a929190918252602082015260400190565b6040516020818303038152906040526040518463ffffffff1660e01b815260040161048793929190610641565b6020604051808303816000875af11580156104a6573d6000803e3d6000fd5b505050506040513d601f19601f820116820180604052508101906104ca91906106a7565b5060008381526020818152604080832054815180840188905280830185905230606082015260808082018390528351808303909101815260a0909101909252815191830191909120868452929091526105249060016106d0565b600085815260208181526040918290209290925580518083018790528082019390935280518084038201815260609093019052815191012090505b92915050565b6000828152600360209081526040808320548084526002928390529220908101805460ff191660011790558260088111156105e65760008581526003602090815260408083209290925583548251888152918201527fdf8036919cb6d09e246c2ed9944e2a2cb1b7db00fecf5fb47a136588025b0fa1910160405180910390a15b5050505050565b6000602082840312156105ff57600080fd5b5035919050565b6000806040838503121561061957600080fd5b50508035926020909101359150565b60006020828403121561063a57600080fd5b5051919050565b6001600160a01b038416815260006020848184015260606040840152835180606085015260005b8181101561068457858101830151858201608001528201610668565b506000608082860101526080601f19601f83011685010192505050949350505050565b6000602082840312156106b957600080fd5b815180151581146106c957600080fd5b9392505050565b8082018082111561055f577f4e487b7100000000000000000000000000000000000000000000000000000000600052601160045260246000fdfea2646970667358221220b3765dbf39ea4e39985045e991ef712e43b15433c45e6a27a0e430d7456c6e0e64736f6c63430008110033",
  "linkReferences": {},
  "deployedLinkReferences": {}
}