{
  "_format": "hh-sol-artifact-1",
  "contractName": "EduAPIDataOracle",
  "sourceName": "contracts/EduAPIDataOracle.sol",
  "abi": [
    {
      "inputs": [],
      "stateMutability": "nonpayable",
      "type": "constructor"
    },
    {
      "anonymous": false,
      "inputs": [
        {
          "indexed": true,
          "internalType": "bytes32",
          "name": "id",
          "type": "bytes32"
        }
      ],
      "name": "ChainlinkCancelled",
      "type": "event"
    },
    {
      "anonymous": false,
      "inputs": [
        {
          "indexed": true,
          "internalType": "bytes32",
          "name": "id",
          "type": "bytes32"
        }
      ],
      "name": "ChainlinkFulfilled",
      "type": "event"
    },
    {
      "anonymous": false,
      "inputs": [
        {
          "indexed": true,
          "internalType": "bytes32",
          "name": "id",
          "type": "bytes32"
        }
      ],
      "name": "ChainlinkRequested",
      "type": "event"
    },
    {
      "anonymous": false,
      "inputs": [
        {
          "indexed": true,
          "internalType": "address",
          "name": "from",
          "type": "address"
        },
        {
          "indexed": true,
          "internalType": "address",
          "name": "to",
          "type": "address"
        }
      ],
      "name": "OwnershipTransferRequested",
      "type": "event"
    },
    {
      "anonymous": false,
      "inputs": [
        {
          "indexed": true,
          "internalType": "address",
          "name": "from",
          "type": "address"
        },
        {
          "indexed": true,
          "internalType": "address",
          "name": "to",
          "type": "address"
        }
      ],
      "name": "OwnershipTransferred",
      "type": "event"
    },
    {
      "anonymous": false,
      "inputs": [
        {
          "indexed": true,
          "internalType": "bytes32",
          "name": "requestId",
          "type": "bytes32"
        },
        {
          "indexed": false,
          "internalType": "uint256",
          "name": "volume",
          "type": "uint256"
        }
      ],
      "name": "RequestVolume",
      "type": "event"
    },
    {
      "inputs": [],
      "name": "acceptOwnership",
      "outputs": [],
      "stateMutability": "nonpayable",
      "type": "function"
    },
    {
      "inputs": [
        {
          "internalType": "bytes32",
          "name": "_requestId",
          "type": "bytes32"
        },
        {
          "internalType": "uint256",
          "name": "_volume",
          "type": "uint256"
        }
      ],
      "name": "fulfill",
      "outputs": [],
      "stateMutability": "nonpayable",
      "type": "function"
    },
    {
      "inputs": [],
      "name": "owner",
      "outputs": [
        {
          "internalType": "address",
          "name": "",
          "type": "address"
        }
      ],
      "stateMutability": "view",
      "type": "function"
    },
    {
      "inputs": [],
      "name": "requestVolumeData",
      "outputs": [
        {
          "internalType": "bytes32",
          "name": "requestId",
          "type": "bytes32"
        }
      ],
      "stateMutability": "nonpayable",
      "type": "function"
    },
    {
      "inputs": [
        {
          "internalType": "address",
          "name": "to",
          "type": "address"
        }
      ],
      "name": "transferOwnership",
      "outputs": [],
      "stateMutability": "nonpayable",
      "type": "function"
    },
    {
      "inputs": [],
      "name": "volume",
      "outputs": [
        {
          "internalType": "uint256",
          "name": "",
          "type": "uint256"
        }
      ],
      "stateMutability": "view",
      "type": "function"
    },
    {
      "inputs": [],
      "name": "withdrawLink",
      "outputs": [],
      "stateMutability": "nonpayable",
      "type": "function"
    }
  ],
  "bytecode": "0x608060405260016004553480156200001657600080fd5b5033806000816200006e5760405162461bcd60e51b815260206004820152601860248201527f43616e6e6f7420736574206f776e657220746f207a65726f000000000000000060448201526064015b60405180910390fd5b600680546001600160a01b0319166001600160a01b0384811691909117909155811615620000a157620000a1816200013f565b505050620000c973326c977e6efc84e512bb9c30f76e30c160ed06fb620001eb60201b60201c565b600380546001600160a01b03191673cc79157eb46f5624204f47ab42b3906caa40eab71790557f6361393833363663633733313439353762386330313263373266303561656562600955600a6200012a670de0b6b3a764000060016200020d565b62000136919062000239565b600a556200025c565b336001600160a01b03821603620001995760405162461bcd60e51b815260206004820152601760248201527f43616e6e6f74207472616e7366657220746f2073656c66000000000000000000604482015260640162000065565b600780546001600160a01b0319166001600160a01b03838116918217909255600654604051919216907fed8889f560326eb138920d842192f0eb3dd22b4f139c87a2c57538e05bae127890600090a350565b600280546001600160a01b0319166001600160a01b0392909216919091179055565b80820281158282048414176200023357634e487b7160e01b600052601160045260246000fd5b92915050565b6000826200025757634e487b7160e01b600052601260045260246000fd5b500490565b6112c1806200026c6000396000f3fe608060405234801561001057600080fd5b506004361061007d5760003560e01c80638da5cb5b1161005b5780638da5cb5b146100ba5780638dc654a2146100d5578063c618a1e4146100dd578063f2fde38b146100e657600080fd5b80634357855e146100825780636021abac1461009757806379ba5097146100b2575b600080fd5b610095610090366004610f57565b6100f9565b005b61009f61021d565b6040519081526020015b60405180910390f35b61009561036c565b6006546040516001600160a01b0390911681526020016100a9565b61009561042e565b61009f60085481565b6100956100f4366004610f79565b610596565b60008281526005602052604090205482906001600160a01b0316331461018c5760405162461bcd60e51b815260206004820152602860248201527f536f75726365206d75737420626520746865206f7261636c65206f662074686560448201527f207265717565737400000000000000000000000000000000000000000000000060648201526084015b60405180910390fd5b600081815260056020526040808220805473ffffffffffffffffffffffffffffffffffffffff191690555182917f7cc135e0cebb02c3480ae5d74d377283180a2601f8f644edf7987b009316c63a91a2827f673b38182859a514d734bdfcb49d3a05c4a641dec9311d9894c9717bcb79af768360405161020e91815260200190565b60405180910390a25060085550565b60008061023460095430634357855e60e01b6105a7565b90506102906040518060400160405280600381526020017f676574000000000000000000000000000000000000000000000000000000000081525060405180608001604052806049815260200161124360499139839190610638565b61030f6040518060400160405280600481526020017f70617468000000000000000000000000000000000000000000000000000000008152506040518060400160405280601881526020017f5241572c4554482c5553442c564f4c554d453234484f55520000000000000000815250836106389092919063ffffffff16565b60408051808201909152600581527f74696d65730000000000000000000000000000000000000000000000000000006020820152670de0b6b3a7640000906103599083908361065b565b61036582600a54610679565b9250505090565b6007546001600160a01b031633146103c65760405162461bcd60e51b815260206004820152601660248201527f4d7573742062652070726f706f736564206f776e6572000000000000000000006044820152606401610183565b6006805473ffffffffffffffffffffffffffffffffffffffff19808216339081179093556007805490911690556040516001600160a01b03909116919082907f8be0079c531659141344cd1fd0a4f28419497f9722a3daafe3b4186f6b6457e090600090a350565b61043661069c565b600061044a6002546001600160a01b031690565b6040517f70a082310000000000000000000000000000000000000000000000000000000081523060048201529091506001600160a01b0382169063a9059cbb90339083906370a0823190602401602060405180830381865afa1580156104b4573d6000803e3d6000fd5b505050506040513d601f19601f820116820180604052508101906104d89190610fa9565b6040516001600160e01b031960e085901b1681526001600160a01b03909216600483015260248201526044016020604051808303816000875af1158015610523573d6000803e3d6000fd5b505050506040513d601f19601f820116820180604052508101906105479190610fc2565b6105935760405162461bcd60e51b815260206004820152601260248201527f556e61626c6520746f207472616e7366657200000000000000000000000000006044820152606401610183565b50565b61059e61069c565b610593816106f8565b6105e56040805160a0810182526000808252602080830182905282840182905260608084018390528451808601909552845283015290608082015290565b6106236040805160a0810182526000808252602080830182905282840182905260608084018390528451808601909552845283015290608082015290565b61062f818686866107af565b95945050505050565b6080830151610647908361082b565b6080830151610656908261082b565b505050565b608083015161066a908361082b565b60808301516106569082610842565b600354600090610693906001600160a01b031684846108a6565b90505b92915050565b6006546001600160a01b031633146106f65760405162461bcd60e51b815260206004820152601660248201527f4f6e6c792063616c6c61626c65206279206f776e6572000000000000000000006044820152606401610183565b565b336001600160a01b038216036107505760405162461bcd60e51b815260206004820152601760248201527f43616e6e6f74207472616e7366657220746f2073656c660000000000000000006044820152606401610183565b6007805473ffffffffffffffffffffffffffffffffffffffff19166001600160a01b03838116918217909255600654604051919216907fed8889f560326eb138920d842192f0eb3dd22b4f139c87a2c57538e05bae127890600090a350565b6107ed6040805160a0810182526000808252602080830182905282840182905260608084018390528451808601909552845283015290608082015290565b6107fd8560800151610100610967565b50508284526001600160a01b03821660208501526001600160e01b031981166040850152835b949350505050565b61083882600383516109cc565b6106568282610ae1565b67ffffffffffffffff198112156108615761085d8282610b08565b5050565b67ffffffffffffffff81131561087b5761085d8282610b4a565b6000811261088f5761085d826000836109cc565b61085d8260016108a184600019610ffa565b6109cc565b6004546000906108b7816001611021565b600455835160408086015160808701515191516000937f4042994600000000000000000000000000000000000000000000000000000000936109089386938493923092918a9160019160240161107a565b60408051601f198184030181529190526020810180517bffffffffffffffffffffffffffffffffffffffffffffffffffffffff166001600160e01b031990931692909217909152905061095d86838684610b6d565b9695505050505050565b6040805180820190915260608152600060208201526109876020836110de565b156109af576109976020836110de565b6109a2906020611100565b6109ac9083611021565b91505b506020828101829052604080518085526000815290920101905290565b60178167ffffffffffffffff16116109f7576109f18360e0600585901b168317610d0b565b50505050565b60ff8167ffffffffffffffff1611610a3557610a1e836018611fe0600586901b1617610d0b565b506109f18367ffffffffffffffff83166001610d30565b61ffff8167ffffffffffffffff1611610a7457610a5d836019611fe0600586901b1617610d0b565b506109f18367ffffffffffffffff83166002610d30565b63ffffffff8167ffffffffffffffff1611610ab557610a9e83601a611fe0600586901b1617610d0b565b506109f18367ffffffffffffffff83166004610d30565b610aca83601b611fe0600586901b1617610d0b565b506109f18367ffffffffffffffff83166008610d30565b60408051808201909152606081526000602082015261069383846000015151848551610d56565b610b138260c3610d0b565b5061085d82610b2483600019610ffa565b604051602001610b3691815260200190565b604051602081830303815290604052610e40565b610b558260c2610d0b565b5061085d8282604051602001610b3691815260200190565b6040516bffffffffffffffffffffffff193060601b1660208201526034810184905260009060540160408051808303601f19018152828252805160209182012060008181526005909252918120805473ffffffffffffffffffffffffffffffffffffffff19166001600160a01b038a1617905590925082917fb5e6e01e79f91267dc17b4e6314d5d4d03593d2ceee0fbb452b750bd70ea5af99190a26002546040517f4000aea00000000000000000000000000000000000000000000000000000000081526001600160a01b0390911690634000aea090610c5690889087908790600401611113565b6020604051808303816000875af1158015610c75573d6000803e3d6000fd5b505050506040513d601f19601f82011682018060405250810190610c999190610fc2565b6108235760405162461bcd60e51b815260206004820152602360248201527f756e61626c6520746f207472616e73666572416e6443616c6c20746f206f726160448201527f636c6500000000000000000000000000000000000000000000000000000000006064820152608401610183565b6040805180820190915260608152600060208201526106938384600001515184610e4d565b604080518082019091526060815260006020820152610823848560000151518585610ea8565b6040805180820190915260608152600060208201528251821115610d7957600080fd5b6020850151610d888386611021565b1115610dbb57610dbb85610dab87602001518786610da69190611021565b610f29565b610db690600261113b565b610f40565b600080865180518760208301019350808887011115610dda5787860182525b505050602084015b60208410610e1a5780518252610df9602083611021565b9150610e06602082611021565b9050610e13602085611100565b9350610de2565b51815160001960208690036101000a019081169019919091161790525083949350505050565b61083882600283516109cc565b60408051808201909152606081526000602082015283602001518310610e8257610e828485602001516002610db6919061113b565b8351805160208583010184815350808503610e9e576001810182525b5093949350505050565b6040805180820190915260608152600060208201526020850151610ecc8584611021565b1115610ee057610ee085610dab8685611021565b60006001610ef084610100611236565b610efa9190611100565b9050855183868201018583198251161781525080518487011115610f1e5783860181525b509495945050505050565b600081831115610f3a575081610696565b50919050565b8151610f4c8383610967565b506109f18382610ae1565b60008060408385031215610f6a57600080fd5b50508035926020909101359150565b600060208284031215610f8b57600080fd5b81356001600160a01b0381168114610fa257600080fd5b9392505050565b600060208284031215610fbb57600080fd5b5051919050565b600060208284031215610fd457600080fd5b81518015158114610fa257600080fd5b634e487b7160e01b600052601160045260246000fd5b818103600083128015838313168383128216171561101a5761101a610fe4565b5092915050565b8082018082111561069657610696610fe4565b6000815180845260005b8181101561105a5760208185018101518683018201520161103e565b506000602082860101526020601f19601f83011685010191505092915050565b60006101006001600160a01b03808c1684528a60208501528960408501528089166060850152506001600160e01b0319871660808401528560a08401528460c08401528060e08401526110cf81840185611034565b9b9a5050505050505050505050565b6000826110fb57634e487b7160e01b600052601260045260246000fd5b500690565b8181038181111561069657610696610fe4565b6001600160a01b038416815282602082015260606040820152600061062f6060830184611034565b808202811582820484141761069657610696610fe4565b600181815b8085111561118d57816000190482111561117357611173610fe4565b8085161561118057918102915b93841c9390800290611157565b509250929050565b6000826111a457506001610696565b816111b157506000610696565b81600181146111c757600281146111d1576111ed565b6001915050610696565b60ff8411156111e2576111e2610fe4565b50506001821b610696565b5060208310610133831016604e8410600b8410161715611210575081810a610696565b61121a8383611152565b806000190482111561122e5761122e610fe4565b029392505050565b6000610693838361119556fe68747470733a2f2f6d696e2d6170692e63727970746f636f6d706172652e636f6d2f646174612f70726963656d756c746966756c6c3f6673796d733d455448267473796d733d555344a2646970667358221220a5a842f2b4bfa9e9849e06c9f46543b3c309e38b9f8598af116346eb04544baf64736f6c63430008110033",
  "linkReferences": {},
  "deployedLinkReferences": {}
}