{
  "_format": "hh-sol-artifact-1",
  "contractName": "EduWitnet",
  "sourceName": "contracts/WitnetRandom.sol",
  "abi": [
    {
      "inputs": [
        {
          "internalType": "contract IWitnetRandomness",
          "name": "_witnetRandomness",
          "type": "address"
        }
      ],
      "stateMutability": "nonpayable",
      "type": "constructor"
    },
    {
      "inputs": [],
      "name": "fetchRandomNumber",
      "outputs": [],
      "stateMutability": "nonpayable",
      "type": "function"
    },
    {
      "inputs": [],
      "name": "latestRandomizingBlock",
      "outputs": [
        {
          "internalType": "uint256",
          "name": "",
          "type": "uint256"
        }
      ],
      "stateMutability": "view",
      "type": "function"
    },
    {
      "inputs": [],
      "name": "randomness",
      "outputs": [
        {
          "internalType": "uint32",
          "name": "",
          "type": "uint32"
        }
      ],
      "stateMutability": "view",
      "type": "function"
    },
    {
      "inputs": [],
      "name": "requestRandomNumber",
      "outputs": [],
      "stateMutability": "payable",
      "type": "function"
    },
    {
      "inputs": [],
      "name": "witnet",
      "outputs": [
        {
          "internalType": "contract IWitnetRandomness",
          "name": "",
          "type": "address"
        }
      ],
      "stateMutability": "view",
      "type": "function"
    },
    {
      "stateMutability": "payable",
      "type": "receive"
    }
  ],
  "bytecode": "0x60a060405234801561001057600080fd5b5060405161048c38038061048c83398101604081905261002f91610056565b6001600160a01b03811661004557610045610086565b6001600160a01b031660805261009c565b60006020828403121561006857600080fd5b81516001600160a01b038116811461007f57600080fd5b9392505050565b634e487b7160e01b600052600160045260246000fd5b6080516103c86100c46000396000818160b301528181610148015261027301526103c86000f3fe60806040526004361061005e5760003560e01c80638678a7b2116100435780638678a7b2146100fa578063921b976314610104578063b1fa41761461011957600080fd5b8063360131891461006a57806346d1d21a146100a157600080fd5b3661006557005b600080fd5b34801561007657600080fd5b506000546100879063ffffffff1681565b60405163ffffffff90911681526020015b60405180910390f35b3480156100ad57600080fd5b506100d57f000000000000000000000000000000000000000000000000000000000000000081565b60405173ffffffffffffffffffffffffffffffffffffffff9091168152602001610098565b61010261013d565b005b34801561011057600080fd5b5061010261021d565b34801561012557600080fd5b5061012f60015481565b604051908152602001610098565b4360018190555060007f000000000000000000000000000000000000000000000000000000000000000073ffffffffffffffffffffffffffffffffffffffff1663699b328a346040518263ffffffff1660e01b815260040160206040518083038185885af11580156101b3573d6000803e3d6000fd5b50505050506040513d601f19601f820116820180604052508101906101d8919061030f565b90503481101561021a57336108fc6101f08334610328565b6040518115909202916000818181858888f19350505050158015610218573d6000803e3d6000fd5b505b50565b60006001541161022f5761022f61034f565b6001546040517f24cbbfc100000000000000000000000000000000000000000000000000000000815263ffffffff60048201526000602482015260448101919091527f000000000000000000000000000000000000000000000000000000000000000073ffffffffffffffffffffffffffffffffffffffff16906324cbbfc190606401602060405180830381865afa1580156102cf573d6000803e3d6000fd5b505050506040513d601f19601f820116820180604052508101906102f39190610365565b6000805463ffffffff191663ffffffff92909216919091179055565b60006020828403121561032157600080fd5b5051919050565b8181038181111561034957634e487b7160e01b600052601160045260246000fd5b92915050565b634e487b7160e01b600052600160045260246000fd5b60006020828403121561037757600080fd5b815163ffffffff8116811461038b57600080fd5b939250505056fea2646970667358221220dc7f655e347946471f887d31b26010b5b63960f8ebda58fceb693d35ebd5fa3764736f6c63430008110033",
  "linkReferences": {},
  "deployedLinkReferences": {}
}