{
  "_format": "hh-sol-artifact-1",
  "contractName": "EduVRFOracle",
  "sourceName": "contracts/EduVRFOracle.sol",
  "abi": [
    {
      "inputs": [
        {
          "internalType": "address",
          "name": "vrfCoordinator",
          "type": "address"
        },
        {
          "internalType": "address",
          "name": "link",
          "type": "address"
        },
        {
          "internalType": "bytes32",
          "name": "_keyhash",
          "type": "bytes32"
        },
        {
          "internalType": "uint256",
          "name": "_fee",
          "type": "uint256"
        }
      ],
      "stateMutability": "nonpayable",
      "type": "constructor"
    },
    {
      "anonymous": false,
      "inputs": [
        {
          "indexed": false,
          "internalType": "uint256",
          "name": "",
          "type": "uint256"
        },
        {
          "indexed": false,
          "internalType": "uint256",
          "name": "",
          "type": "uint256"
        },
        {
          "indexed": false,
          "internalType": "bytes32",
          "name": "",
          "type": "bytes32"
        },
        {
          "indexed": false,
          "internalType": "uint256",
          "name": "",
          "type": "uint256"
        }
      ],
      "name": "LuckyStudent",
      "type": "event"
    },
    {
      "anonymous": false,
      "inputs": [
        {
          "indexed": false,
          "internalType": "bytes32",
          "name": "",
          "type": "bytes32"
        },
        {
          "indexed": false,
          "internalType": "uint256",
          "name": "",
          "type": "uint256"
        }
      ],
      "name": "RandomnessRequested",
      "type": "event"
    },
    {
      "anonymous": false,
      "inputs": [
        {
          "indexed": false,
          "internalType": "uint256",
          "name": "",
          "type": "uint256"
        },
        {
          "indexed": false,
          "internalType": "uint256",
          "name": "",
          "type": "uint256"
        }
      ],
      "name": "StudentCreated",
      "type": "event"
    },
    {
      "inputs": [
        {
          "internalType": "uint256",
          "name": "_studentId",
          "type": "uint256"
        }
      ],
      "name": "chooseLucky",
      "outputs": [],
      "stateMutability": "nonpayable",
      "type": "function"
    },
    {
      "inputs": [
        {
          "internalType": "uint256",
          "name": "_studentId",
          "type": "uint256"
        },
        {
          "internalType": "uint256",
          "name": "_groupId",
          "type": "uint256"
        }
      ],
      "name": "createStudent",
      "outputs": [],
      "stateMutability": "payable",
      "type": "function"
    },
    {
      "inputs": [],
      "name": "fee",
      "outputs": [
        {
          "internalType": "uint256",
          "name": "",
          "type": "uint256"
        }
      ],
      "stateMutability": "view",
      "type": "function"
    },
    {
      "inputs": [
        {
          "internalType": "uint256",
          "name": "_studentId",
          "type": "uint256"
        }
      ],
      "name": "getRandom",
      "outputs": [
        {
          "internalType": "uint256",
          "name": "",
          "type": "uint256"
        }
      ],
      "stateMutability": "nonpayable",
      "type": "function"
    },
    {
      "inputs": [
        {
          "internalType": "uint256",
          "name": "_studentId",
          "type": "uint256"
        }
      ],
      "name": "isLucky",
      "outputs": [
        {
          "internalType": "bool",
          "name": "",
          "type": "bool"
        }
      ],
      "stateMutability": "nonpayable",
      "type": "function"
    },
    {
      "inputs": [
        {
          "internalType": "bytes32",
          "name": "requestId",
          "type": "bytes32"
        },
        {
          "internalType": "uint256",
          "name": "randomness",
          "type": "uint256"
        }
      ],
      "name": "rawFulfillRandomness",
      "outputs": [],
      "stateMutability": "nonpayable",
      "type": "function"
    }
  ],
  "bytecode": "0x60c060405234801561001057600080fd5b5060405161092038038061092083398101604081905261002f9161007d565b6001600160a01b0393841660a05292909116608052600555600655600780546001600160a01b031916331790556100c0565b80516001600160a01b038116811461007857600080fd5b919050565b6000806000806080858703121561009357600080fd5b61009c85610061565b93506100aa60208601610061565b6040860151606090960151949790965092505050565b60805160a05161082d6100f36000396000818161046401526105120152600081816101f501526104e3015261082d6000f3fe6080604052600436106100655760003560e01c806394985ddd1161004357806394985ddd146100e7578063cd4b691414610107578063ddca3f431461014657600080fd5b806365520a1e1461006a57806377cfad251461008c57806393708dda146100d4575b600080fd5b34801561007657600080fd5b5061008a6100853660046106da565b61015c565b005b34801561009857600080fd5b506100bf6100a73660046106da565b60009081526002602052604090206003015460ff1690565b60405190151581526020015b60405180910390f35b61008a6100e23660046106f3565b61031a565b3480156100f357600080fd5b5061008a6101023660046106f3565b610459565b34801561011357600080fd5b506101386101223660046106da565b6000908152600260208190526040909120015490565b6040519081526020016100cb565b34801561015257600080fd5b5061013860065481565b6000818152600260205260409020600381015460ff16156101c45760405162461bcd60e51b815260206004820152601560248201527f53747564656e7420616c7265616479206c75636b79000000000000000000000060448201526064015b60405180910390fd5b6006546040517f70a082310000000000000000000000000000000000000000000000000000000081523060048201527f00000000000000000000000000000000000000000000000000000000000000006001600160a01b0316906370a0823190602401602060405180830381865afa158015610244573d6000803e3d6000fd5b505050506040513d601f19601f820116820180604052508101906102689190610715565b10156102b65760405162461bcd60e51b815260206004820152600f60248201527f4e6f7420656e6f756768204c494e4b000000000000000000000000000000000060448201526064016101bb565b60006102c66005546006546104df565b60008181526003602090815260409182902086905581518381529081018690529192507f49cdaa45e000eb9a419ae3b028f7f7bec2179153ebe33293f31286642842132691015b60405180910390a1505050565b6007546001600160a01b0316331461039a5760405162461bcd60e51b815260206004820152602160248201527f4f6e6c792061646d696e2063616e2063616c6c20746869732066756e6374696f60448201527f6e0000000000000000000000000000000000000000000000000000000000000060648201526084016101bb565b600060405180608001604052808481526020018381526020016000815260200160001515815250905080600260006103d160015490565b8152602080820192909252604090810160002083518155918301516001808401919091559083015160028301556060909201516003909101805460ff1916911515919091179055805481019055805160208083015160408051938452918301527f29358ba910ee1777e26b0ecfe36155daf0293714fc5dad62ec4287dda7f83c04910161030d565b336001600160a01b037f000000000000000000000000000000000000000000000000000000000000000016146104d15760405162461bcd60e51b815260206004820152601f60248201527f4f6e6c7920565246436f6f7264696e61746f722063616e2066756c66696c6c0060448201526064016101bb565b6104db828261065a565b5050565b60007f00000000000000000000000000000000000000000000000000000000000000006001600160a01b0316634000aea07f00000000000000000000000000000000000000000000000000000000000000008486600060405160200161054f929190918252602082015260400190565b6040516020818303038152906040526040518463ffffffff1660e01b815260040161057c9392919061072e565b6020604051808303816000875af115801561059b573d6000803e3d6000fd5b505050506040513d601f19601f820116820180604052508101906105bf9190610794565b5060008381526020818152604080832054815180840188905280830185905230606082015260808082018390528351808303909101815260a0909101909252815191830191909120868452929091526106199060016107bd565b600085815260208181526040918290209290925580518083018790528082019390935280518084038201815260609093019052815191012090505b92915050565b600082815260036020818152604080842054808552600280845294829020938401805460ff1916600117905593830185905582548151868152928301869052908201869052606082015283907f6cb6de6180fcf811791a5aa7ffd54d665e5e1d8c139314673e11930890c519fb9060800160405180910390a15050505050565b6000602082840312156106ec57600080fd5b5035919050565b6000806040838503121561070657600080fd5b50508035926020909101359150565b60006020828403121561072757600080fd5b5051919050565b6001600160a01b038416815260006020848184015260606040840152835180606085015260005b8181101561077157858101830151858201608001528201610755565b506000608082860101526080601f19601f83011685010192505050949350505050565b6000602082840312156107a657600080fd5b815180151581146107b657600080fd5b9392505050565b80820180821115610654577f4e487b7100000000000000000000000000000000000000000000000000000000600052601160045260246000fdfea2646970667358221220d1bdfd27352a51d301e80aed58d2439124c8c136e26edbe08d62a7f6f98c068f64736f6c63430008110033",
  "linkReferences": {},
  "deployedLinkReferences": {}
}