{"contracts/EduAPIDataOracle.sol":{"EduAPIDataOracle":{"abi":[{"inputs":[],"stateMutability":"nonpayable","type":"constructor"},{"anonymous":false,"inputs":[{"indexed":true,"internalType":"bytes32","name":"id","type":"bytes32"}],"name":"ChainlinkCancelled","type":"event"},{"anonymous":false,"inputs":[{"indexed":true,"internalType":"bytes32","name":"id","type":"bytes32"}],"name":"ChainlinkFulfilled","type":"event"},{"anonymous":false,"inputs":[{"indexed":true,"internalType":"bytes32","name":"id","type":"bytes32"}],"name":"ChainlinkRequested","type":"event"},{"anonymous":false,"inputs":[{"indexed":true,"internalType":"address","name":"from","type":"address"},{"indexed":true,"internalType":"address","name":"to","type":"address"}],"name":"OwnershipTransferRequested","type":"event"},{"anonymous":false,"inputs":[{"indexed":true,"internalType":"address","name":"from","type":"address"},{"indexed":true,"internalType":"address","name":"to","type":"address"}],"name":"OwnershipTransferred","type":"event"},{"anonymous":false,"inputs":[{"indexed":true,"internalType":"bytes32","name":"requestId","type":"bytes32"},{"indexed":false,"internalType":"uint256","name":"volume","type":"uint256"}],"name":"RequestVolume","type":"event"},{"inputs":[],"name":"acceptOwnership","outputs":[],"stateMutability":"nonpayable","type":"function"},{"inputs":[{"internalType":"bytes32","name":"_requestId","type":"bytes32"},{"internalType":"uint256","name":"_volume","type":"uint256"}],"name":"fulfill","outputs":[],"stateMutability":"nonpayable","type":"function"},{"inputs":[],"name":"owner","outputs":[{"internalType":"address","name":"","type":"address"}],"stateMutability":"view","type":"function"},{"inputs":[],"name":"requestVolumeData","outputs":[{"internalType":"bytes32","name":"requestId","type":"bytes32"}],"stateMutability":"nonpayable","type":"function"},{"inputs":[{"internalType":"address","name":"to","type":"address"}],"name":"transferOwnership","outputs":[],"stateMutability":"nonpayable","type":"function"},{"inputs":[],"name":"volume","outputs":[{"internalType":"uint256","name":"","type":"uint256"}],"stateMutability":"view","type":"function"},{"inputs":[],"name":"withdrawLink","outputs":[],"stateMutability":"nonpayable","type":"function"}],"devdoc":{"kind":"dev","methods":{},"version":1},"evm":{"bytecode":{"linkReferences":{},"object":"608060405260016004553480156200001657600080fd5b5033806000816200006e5760405162461bcd60e51b815260206004820152601860248201527f43616e6e6f7420736574206f776e657220746f207a65726f000000000000000060448201526064015b60405180910390fd5b600680546001600160a01b0319166001600160a01b0384811691909117909155811615620000a157620000a1816200013f565b505050620000c973326c977e6efc84e512bb9c30f76e30c160ed06fb620001eb60201b60201c565b600380546001600160a01b03191673cc79157eb46f5624204f47ab42b3906caa40eab71790557f6361393833363663633733313439353762386330313263373266303561656562600955600a6200012a670de0b6b3a764000060016200020d565b62000136919062000239565b600a556200025c565b336001600160a01b03821603620001995760405162461bcd60e51b815260206004820152601760248201527f43616e6e6f74207472616e7366657220746f2073656c66000000000000000000604482015260640162000065565b600780546001600160a01b0319166001600160a01b03838116918217909255600654604051919216907fed8889f560326eb138920d842192f0eb3dd22b4f139c87a2c57538e05bae127890600090a350565b600280546001600160a01b0319166001600160a01b0392909216919091179055565b80820281158282048414176200023357634e487b7160e01b600052601160045260246000fd5b92915050565b6000826200025757634e487b7160e01b600052601260045260246000fd5b500490565b6112c1806200026c6000396000f3fe608060405234801561001057600080fd5b506004361061007d5760003560e01c80638da5cb5b1161005b5780638da5cb5b146100ba5780638dc654a2146100d5578063c618a1e4146100dd578063f2fde38b146100e657600080fd5b80634357855e146100825780636021abac1461009757806379ba5097146100b2575b600080fd5b610095610090366004610f57565b6100f9565b005b61009f61021d565b6040519081526020015b60405180910390f35b61009561036c565b6006546040516001600160a01b0390911681526020016100a9565b61009561042e565b61009f60085481565b6100956100f4366004610f79565b610596565b60008281526005602052604090205482906001600160a01b0316331461018c5760405162461bcd60e51b815260206004820152602860248201527f536f75726365206d75737420626520746865206f7261636c65206f662074686560448201527f207265717565737400000000000000000000000000000000000000000000000060648201526084015b60405180910390fd5b600081815260056020526040808220805473ffffffffffffffffffffffffffffffffffffffff191690555182917f7cc135e0cebb02c3480ae5d74d377283180a2601f8f644edf7987b009316c63a91a2827f673b38182859a514d734bdfcb49d3a05c4a641dec9311d9894c9717bcb79af768360405161020e91815260200190565b60405180910390a25060085550565b60008061023460095430634357855e60e01b6105a7565b90506102906040518060400160405280600381526020017f676574000000000000000000000000000000000000000000000000000000000081525060405180608001604052806049815260200161124360499139839190610638565b61030f6040518060400160405280600481526020017f70617468000000000000000000000000000000000000000000000000000000008152506040518060400160405280601881526020017f5241572c4554482c5553442c564f4c554d453234484f55520000000000000000815250836106389092919063ffffffff16565b60408051808201909152600581527f74696d65730000000000000000000000000000000000000000000000000000006020820152670de0b6b3a7640000906103599083908361065b565b61036582600a54610679565b9250505090565b6007546001600160a01b031633146103c65760405162461bcd60e51b815260206004820152601660248201527f4d7573742062652070726f706f736564206f776e6572000000000000000000006044820152606401610183565b6006805473ffffffffffffffffffffffffffffffffffffffff19808216339081179093556007805490911690556040516001600160a01b03909116919082907f8be0079c531659141344cd1fd0a4f28419497f9722a3daafe3b4186f6b6457e090600090a350565b61043661069c565b600061044a6002546001600160a01b031690565b6040517f70a082310000000000000000000000000000000000000000000000000000000081523060048201529091506001600160a01b0382169063a9059cbb90339083906370a0823190602401602060405180830381865afa1580156104b4573d6000803e3d6000fd5b505050506040513d601f19601f820116820180604052508101906104d89190610fa9565b6040516001600160e01b031960e085901b1681526001600160a01b03909216600483015260248201526044016020604051808303816000875af1158015610523573d6000803e3d6000fd5b505050506040513d601f19601f820116820180604052508101906105479190610fc2565b6105935760405162461bcd60e51b815260206004820152601260248201527f556e61626c6520746f207472616e7366657200000000000000000000000000006044820152606401610183565b50565b61059e61069c565b610593816106f8565b6105e56040805160a0810182526000808252602080830182905282840182905260608084018390528451808601909552845283015290608082015290565b6106236040805160a0810182526000808252602080830182905282840182905260608084018390528451808601909552845283015290608082015290565b61062f818686866107af565b95945050505050565b6080830151610647908361082b565b6080830151610656908261082b565b505050565b608083015161066a908361082b565b60808301516106569082610842565b600354600090610693906001600160a01b031684846108a6565b90505b92915050565b6006546001600160a01b031633146106f65760405162461bcd60e51b815260206004820152601660248201527f4f6e6c792063616c6c61626c65206279206f776e6572000000000000000000006044820152606401610183565b565b336001600160a01b038216036107505760405162461bcd60e51b815260206004820152601760248201527f43616e6e6f74207472616e7366657220746f2073656c660000000000000000006044820152606401610183565b6007805473ffffffffffffffffffffffffffffffffffffffff19166001600160a01b03838116918217909255600654604051919216907fed8889f560326eb138920d842192f0eb3dd22b4f139c87a2c57538e05bae127890600090a350565b6107ed6040805160a0810182526000808252602080830182905282840182905260608084018390528451808601909552845283015290608082015290565b6107fd8560800151610100610967565b50508284526001600160a01b03821660208501526001600160e01b031981166040850152835b949350505050565b61083882600383516109cc565b6106568282610ae1565b67ffffffffffffffff198112156108615761085d8282610b08565b5050565b67ffffffffffffffff81131561087b5761085d8282610b4a565b6000811261088f5761085d826000836109cc565b61085d8260016108a184600019610ffa565b6109cc565b6004546000906108b7816001611021565b600455835160408086015160808701515191516000937f4042994600000000000000000000000000000000000000000000000000000000936109089386938493923092918a9160019160240161107a565b60408051601f198184030181529190526020810180517bffffffffffffffffffffffffffffffffffffffffffffffffffffffff166001600160e01b031990931692909217909152905061095d86838684610b6d565b9695505050505050565b6040805180820190915260608152600060208201526109876020836110de565b156109af576109976020836110de565b6109a2906020611100565b6109ac9083611021565b91505b506020828101829052604080518085526000815290920101905290565b60178167ffffffffffffffff16116109f7576109f18360e0600585901b168317610d0b565b50505050565b60ff8167ffffffffffffffff1611610a3557610a1e836018611fe0600586901b1617610d0b565b506109f18367ffffffffffffffff83166001610d30565b61ffff8167ffffffffffffffff1611610a7457610a5d836019611fe0600586901b1617610d0b565b506109f18367ffffffffffffffff83166002610d30565b63ffffffff8167ffffffffffffffff1611610ab557610a9e83601a611fe0600586901b1617610d0b565b506109f18367ffffffffffffffff83166004610d30565b610aca83601b611fe0600586901b1617610d0b565b506109f18367ffffffffffffffff83166008610d30565b60408051808201909152606081526000602082015261069383846000015151848551610d56565b610b138260c3610d0b565b5061085d82610b2483600019610ffa565b604051602001610b3691815260200190565b604051602081830303815290604052610e40565b610b558260c2610d0b565b5061085d8282604051602001610b3691815260200190565b6040516bffffffffffffffffffffffff193060601b1660208201526034810184905260009060540160408051808303601f19018152828252805160209182012060008181526005909252918120805473ffffffffffffffffffffffffffffffffffffffff19166001600160a01b038a1617905590925082917fb5e6e01e79f91267dc17b4e6314d5d4d03593d2ceee0fbb452b750bd70ea5af99190a26002546040517f4000aea00000000000000000000000000000000000000000000000000000000081526001600160a01b0390911690634000aea090610c5690889087908790600401611113565b6020604051808303816000875af1158015610c75573d6000803e3d6000fd5b505050506040513d601f19601f82011682018060405250810190610c999190610fc2565b6108235760405162461bcd60e51b815260206004820152602360248201527f756e61626c6520746f207472616e73666572416e6443616c6c20746f206f726160448201527f636c6500000000000000000000000000000000000000000000000000000000006064820152608401610183565b6040805180820190915260608152600060208201526106938384600001515184610e4d565b604080518082019091526060815260006020820152610823848560000151518585610ea8565b6040805180820190915260608152600060208201528251821115610d7957600080fd5b6020850151610d888386611021565b1115610dbb57610dbb85610dab87602001518786610da69190611021565b610f29565b610db690600261113b565b610f40565b600080865180518760208301019350808887011115610dda5787860182525b505050602084015b60208410610e1a5780518252610df9602083611021565b9150610e06602082611021565b9050610e13602085611100565b9350610de2565b51815160001960208690036101000a019081169019919091161790525083949350505050565b61083882600283516109cc565b60408051808201909152606081526000602082015283602001518310610e8257610e828485602001516002610db6919061113b565b8351805160208583010184815350808503610e9e576001810182525b5093949350505050565b6040805180820190915260608152600060208201526020850151610ecc8584611021565b1115610ee057610ee085610dab8685611021565b60006001610ef084610100611236565b610efa9190611100565b9050855183868201018583198251161781525080518487011115610f1e5783860181525b509495945050505050565b600081831115610f3a575081610696565b50919050565b8151610f4c8383610967565b506109f18382610ae1565b60008060408385031215610f6a57600080fd5b50508035926020909101359150565b600060208284031215610f8b57600080fd5b81356001600160a01b0381168114610fa257600080fd5b9392505050565b600060208284031215610fbb57600080fd5b5051919050565b600060208284031215610fd457600080fd5b81518015158114610fa257600080fd5b634e487b7160e01b600052601160045260246000fd5b818103600083128015838313168383128216171561101a5761101a610fe4565b5092915050565b8082018082111561069657610696610fe4565b6000815180845260005b8181101561105a5760208185018101518683018201520161103e565b506000602082860101526020601f19601f83011685010191505092915050565b60006101006001600160a01b03808c1684528a60208501528960408501528089166060850152506001600160e01b0319871660808401528560a08401528460c08401528060e08401526110cf81840185611034565b9b9a5050505050505050505050565b6000826110fb57634e487b7160e01b600052601260045260246000fd5b500690565b8181038181111561069657610696610fe4565b6001600160a01b038416815282602082015260606040820152600061062f6060830184611034565b808202811582820484141761069657610696610fe4565b600181815b8085111561118d57816000190482111561117357611173610fe4565b8085161561118057918102915b93841c9390800290611157565b509250929050565b6000826111a457506001610696565b816111b157506000610696565b81600181146111c757600281146111d1576111ed565b6001915050610696565b60ff8411156111e2576111e2610fe4565b50506001821b610696565b5060208310610133831016604e8410600b8410161715611210575081810a610696565b61121a8383611152565b806000190482111561122e5761122e610fe4565b029392505050565b6000610693838361119556fe68747470733a2f2f6d696e2d6170692e63727970746f636f6d706172652e636f6d2f646174612f70726963656d756c746966756c6c3f6673796d733d455448267473796d733d555344a26469706673582212208701e03b6f71b2a1b5320503324976f01438b2b2ce6279973fccc1f51464ae2c64736f6c63430008110033","opcodes":"PUSH1 0x80 PUSH1 0x40 MSTORE PUSH1 0x1 PUSH1 0x4 SSTORE CALLVALUE DUP1 ISZERO PUSH3 0x16 JUMPI PUSH1 0x0 DUP1 REVERT JUMPDEST POP CALLER DUP1 PUSH1 0x0 DUP2 PUSH3 0x6E JUMPI PUSH1 0x40 MLOAD PUSH3 0x461BCD PUSH1 0xE5 SHL DUP2 MSTORE PUSH1 0x20 PUSH1 0x4 DUP3 ADD MSTORE PUSH1 0x18 PUSH1 0x24 DUP3 ADD MSTORE PUSH32 0x43616E6E6F7420736574206F776E657220746F207A65726F0000000000000000 PUSH1 0x44 DUP3 ADD MSTORE PUSH1 0x64 ADD JUMPDEST PUSH1 0x40 MLOAD DUP1 SWAP2 SUB SWAP1 REVERT JUMPDEST PUSH1 0x6 DUP1 SLOAD PUSH1 0x1 PUSH1 0x1 PUSH1 0xA0 SHL SUB NOT AND PUSH1 0x1 PUSH1 0x1 PUSH1 0xA0 SHL SUB DUP5 DUP2 AND SWAP2 SWAP1 SWAP2 OR SWAP1 SWAP2 SSTORE DUP2 AND ISZERO PUSH3 0xA1 JUMPI PUSH3 0xA1 DUP2 PUSH3 0x13F JUMP JUMPDEST POP POP POP PUSH3 0xC9 PUSH20 0x326C977E6EFC84E512BB9C30F76E30C160ED06FB PUSH3 0x1EB PUSH1 0x20 SHL PUSH1 0x20 SHR JUMP JUMPDEST PUSH1 0x3 DUP1 SLOAD PUSH1 0x1 PUSH1 0x1 PUSH1 0xA0 SHL SUB NOT AND PUSH20 0xCC79157EB46F5624204F47AB42B3906CAA40EAB7 OR SWAP1 SSTORE PUSH32 0x6361393833363663633733313439353762386330313263373266303561656562 PUSH1 0x9 SSTORE PUSH1 0xA PUSH3 0x12A PUSH8 0xDE0B6B3A7640000 PUSH1 0x1 PUSH3 0x20D JUMP JUMPDEST PUSH3 0x136 SWAP2 SWAP1 PUSH3 0x239 JUMP JUMPDEST PUSH1 0xA SSTORE PUSH3 0x25C JUMP JUMPDEST CALLER PUSH1 0x1 PUSH1 0x1 PUSH1 0xA0 SHL SUB DUP3 AND SUB PUSH3 0x199 JUMPI PUSH1 0x40 MLOAD PUSH3 0x461BCD PUSH1 0xE5 SHL DUP2 MSTORE PUSH1 0x20 PUSH1 0x4 DUP3 ADD MSTORE PUSH1 0x17 PUSH1 0x24 DUP3 ADD MSTORE PUSH32 0x43616E6E6F74207472616E7366657220746F2073656C66000000000000000000 PUSH1 0x44 DUP3 ADD MSTORE PUSH1 0x64 ADD PUSH3 0x65 JUMP JUMPDEST PUSH1 0x7 DUP1 SLOAD PUSH1 0x1 PUSH1 0x1 PUSH1 0xA0 SHL SUB NOT AND PUSH1 0x1 PUSH1 0x1 PUSH1 0xA0 SHL SUB DUP4 DUP2 AND SWAP2 DUP3 OR SWAP1 SWAP3 SSTORE PUSH1 0x6 SLOAD PUSH1 0x40 MLOAD SWAP2 SWAP3 AND SWAP1 PUSH32 0xED8889F560326EB138920D842192F0EB3DD22B4F139C87A2C57538E05BAE1278 SWAP1 PUSH1 0x0 SWAP1 LOG3 POP JUMP JUMPDEST PUSH1 0x2 DUP1 SLOAD PUSH1 0x1 PUSH1 0x1 PUSH1 0xA0 SHL SUB NOT AND PUSH1 0x1 PUSH1 0x1 PUSH1 0xA0 SHL SUB SWAP3 SWAP1 SWAP3 AND SWAP2 SWAP1 SWAP2 OR SWAP1 SSTORE JUMP JUMPDEST DUP1 DUP3 MUL DUP2 ISZERO DUP3 DUP3 DIV DUP5 EQ OR PUSH3 0x233 JUMPI PUSH4 0x4E487B71 PUSH1 0xE0 SHL PUSH1 0x0 MSTORE PUSH1 0x11 PUSH1 0x4 MSTORE PUSH1 0x24 PUSH1 0x0 REVERT JUMPDEST SWAP3 SWAP2 POP POP JUMP JUMPDEST PUSH1 0x0 DUP3 PUSH3 0x257 JUMPI PUSH4 0x4E487B71 PUSH1 0xE0 SHL PUSH1 0x0 MSTORE PUSH1 0x12 PUSH1 0x4 MSTORE PUSH1 0x24 PUSH1 0x0 REVERT JUMPDEST POP DIV SWAP1 JUMP JUMPDEST PUSH2 0x12C1 DUP1 PUSH3 0x26C PUSH1 0x0 CODECOPY PUSH1 0x0 RETURN INVALID PUSH1 0x80 PUSH1 0x40 MSTORE CALLVALUE DUP1 ISZERO PUSH2 0x10 JUMPI PUSH1 0x0 DUP1 REVERT JUMPDEST POP PUSH1 0x4 CALLDATASIZE LT PUSH2 0x7D JUMPI PUSH1 0x0 CALLDATALOAD PUSH1 0xE0 SHR DUP1 PUSH4 0x8DA5CB5B GT PUSH2 0x5B JUMPI DUP1 PUSH4 0x8DA5CB5B EQ PUSH2 0xBA JUMPI DUP1 PUSH4 0x8DC654A2 EQ PUSH2 0xD5 JUMPI DUP1 PUSH4 0xC618A1E4 EQ PUSH2 0xDD JUMPI DUP1 PUSH4 0xF2FDE38B EQ PUSH2 0xE6 JUMPI PUSH1 0x0 DUP1 REVERT JUMPDEST DUP1 PUSH4 0x4357855E EQ PUSH2 0x82 JUMPI DUP1 PUSH4 0x6021ABAC EQ PUSH2 0x97 JUMPI DUP1 PUSH4 0x79BA5097 EQ PUSH2 0xB2 JUMPI JUMPDEST PUSH1 0x0 DUP1 REVERT JUMPDEST PUSH2 0x95 PUSH2 0x90 CALLDATASIZE PUSH1 0x4 PUSH2 0xF57 JUMP JUMPDEST PUSH2 0xF9 JUMP JUMPDEST STOP JUMPDEST PUSH2 0x9F PUSH2 0x21D JUMP JUMPDEST PUSH1 0x40 MLOAD SWAP1 DUP2 MSTORE PUSH1 0x20 ADD JUMPDEST PUSH1 0x40 MLOAD DUP1 SWAP2 SUB SWAP1 RETURN JUMPDEST PUSH2 0x95 PUSH2 0x36C JUMP JUMPDEST PUSH1 0x6 SLOAD PUSH1 0x40 MLOAD PUSH1 0x1 PUSH1 0x1 PUSH1 0xA0 SHL SUB SWAP1 SWAP2 AND DUP2 MSTORE PUSH1 0x20 ADD PUSH2 0xA9 JUMP JUMPDEST PUSH2 0x95 PUSH2 0x42E JUMP JUMPDEST PUSH2 0x9F PUSH1 0x8 SLOAD DUP2 JUMP JUMPDEST PUSH2 0x95 PUSH2 0xF4 CALLDATASIZE PUSH1 0x4 PUSH2 0xF79 JUMP JUMPDEST PUSH2 0x596 JUMP JUMPDEST PUSH1 0x0 DUP3 DUP2 MSTORE PUSH1 0x5 PUSH1 0x20 MSTORE PUSH1 0x40 SWAP1 KECCAK256 SLOAD DUP3 SWAP1 PUSH1 0x1 PUSH1 0x1 PUSH1 0xA0 SHL SUB AND CALLER EQ PUSH2 0x18C JUMPI PUSH1 0x40 MLOAD PUSH3 0x461BCD PUSH1 0xE5 SHL DUP2 MSTORE PUSH1 0x20 PUSH1 0x4 DUP3 ADD MSTORE PUSH1 0x28 PUSH1 0x24 DUP3 ADD MSTORE PUSH32 0x536F75726365206D75737420626520746865206F7261636C65206F6620746865 PUSH1 0x44 DUP3 ADD MSTORE PUSH32 0x2072657175657374000000000000000000000000000000000000000000000000 PUSH1 0x64 DUP3 ADD MSTORE PUSH1 0x84 ADD JUMPDEST PUSH1 0x40 MLOAD DUP1 SWAP2 SUB SWAP1 REVERT JUMPDEST PUSH1 0x0 DUP2 DUP2 MSTORE PUSH1 0x5 PUSH1 0x20 MSTORE PUSH1 0x40 DUP1 DUP3 KECCAK256 DUP1 SLOAD PUSH20 0xFFFFFFFFFFFFFFFFFFFFFFFFFFFFFFFFFFFFFFFF NOT AND SWAP1 SSTORE MLOAD DUP3 SWAP2 PUSH32 0x7CC135E0CEBB02C3480AE5D74D377283180A2601F8F644EDF7987B009316C63A SWAP2 LOG2 DUP3 PUSH32 0x673B38182859A514D734BDFCB49D3A05C4A641DEC9311D9894C9717BCB79AF76 DUP4 PUSH1 0x40 MLOAD PUSH2 0x20E SWAP2 DUP2 MSTORE PUSH1 0x20 ADD SWAP1 JUMP JUMPDEST PUSH1 0x40 MLOAD DUP1 SWAP2 SUB SWAP1 LOG2 POP PUSH1 0x8 SSTORE POP JUMP JUMPDEST PUSH1 0x0 DUP1 PUSH2 0x234 PUSH1 0x9 SLOAD ADDRESS PUSH4 0x4357855E PUSH1 0xE0 SHL PUSH2 0x5A7 JUMP JUMPDEST SWAP1 POP PUSH2 0x290 PUSH1 0x40 MLOAD DUP1 PUSH1 0x40 ADD PUSH1 0x40 MSTORE DUP1 PUSH1 0x3 DUP2 MSTORE PUSH1 0x20 ADD PUSH32 0x6765740000000000000000000000000000000000000000000000000000000000 DUP2 MSTORE POP PUSH1 0x40 MLOAD DUP1 PUSH1 0x80 ADD PUSH1 0x40 MSTORE DUP1 PUSH1 0x49 DUP2 MSTORE PUSH1 0x20 ADD PUSH2 0x1243 PUSH1 0x49 SWAP2 CODECOPY DUP4 SWAP2 SWAP1 PUSH2 0x638 JUMP JUMPDEST PUSH2 0x30F PUSH1 0x40 MLOAD DUP1 PUSH1 0x40 ADD PUSH1 0x40 MSTORE DUP1 PUSH1 0x4 DUP2 MSTORE PUSH1 0x20 ADD PUSH32 0x7061746800000000000000000000000000000000000000000000000000000000 DUP2 MSTORE POP PUSH1 0x40 MLOAD DUP1 PUSH1 0x40 ADD PUSH1 0x40 MSTORE DUP1 PUSH1 0x18 DUP2 MSTORE PUSH1 0x20 ADD PUSH32 0x5241572C4554482C5553442C564F4C554D453234484F55520000000000000000 DUP2 MSTORE POP DUP4 PUSH2 0x638 SWAP1 SWAP3 SWAP2 SWAP1 PUSH4 0xFFFFFFFF AND JUMP JUMPDEST PUSH1 0x40 DUP1 MLOAD DUP1 DUP3 ADD SWAP1 SWAP2 MSTORE PUSH1 0x5 DUP2 MSTORE PUSH32 0x74696D6573000000000000000000000000000000000000000000000000000000 PUSH1 0x20 DUP3 ADD MSTORE PUSH8 0xDE0B6B3A7640000 SWAP1 PUSH2 0x359 SWAP1 DUP4 SWAP1 DUP4 PUSH2 0x65B JUMP JUMPDEST PUSH2 0x365 DUP3 PUSH1 0xA SLOAD PUSH2 0x679 JUMP JUMPDEST SWAP3 POP POP POP SWAP1 JUMP JUMPDEST PUSH1 0x7 SLOAD PUSH1 0x1 PUSH1 0x1 PUSH1 0xA0 SHL SUB AND CALLER EQ PUSH2 0x3C6 JUMPI PUSH1 0x40 MLOAD PUSH3 0x461BCD PUSH1 0xE5 SHL DUP2 MSTORE PUSH1 0x20 PUSH1 0x4 DUP3 ADD MSTORE PUSH1 0x16 PUSH1 0x24 DUP3 ADD MSTORE PUSH32 0x4D7573742062652070726F706F736564206F776E657200000000000000000000 PUSH1 0x44 DUP3 ADD MSTORE PUSH1 0x64 ADD PUSH2 0x183 JUMP JUMPDEST PUSH1 0x6 DUP1 SLOAD PUSH20 0xFFFFFFFFFFFFFFFFFFFFFFFFFFFFFFFFFFFFFFFF NOT DUP1 DUP3 AND CALLER SWAP1 DUP2 OR SWAP1 SWAP4 SSTORE PUSH1 0x7 DUP1 SLOAD SWAP1 SWAP2 AND SWAP1 SSTORE PUSH1 0x40 MLOAD PUSH1 0x1 PUSH1 0x1 PUSH1 0xA0 SHL SUB SWAP1 SWAP2 AND SWAP2 SWAP1 DUP3 SWAP1 PUSH32 0x8BE0079C531659141344CD1FD0A4F28419497F9722A3DAAFE3B4186F6B6457E0 SWAP1 PUSH1 0x0 SWAP1 LOG3 POP JUMP JUMPDEST PUSH2 0x436 PUSH2 0x69C JUMP JUMPDEST PUSH1 0x0 PUSH2 0x44A PUSH1 0x2 SLOAD PUSH1 0x1 PUSH1 0x1 PUSH1 0xA0 SHL SUB AND SWAP1 JUMP JUMPDEST PUSH1 0x40 MLOAD PUSH32 0x70A0823100000000000000000000000000000000000000000000000000000000 DUP2 MSTORE ADDRESS PUSH1 0x4 DUP3 ADD MSTORE SWAP1 SWAP2 POP PUSH1 0x1 PUSH1 0x1 PUSH1 0xA0 SHL SUB DUP3 AND SWAP1 PUSH4 0xA9059CBB SWAP1 CALLER SWAP1 DUP4 SWAP1 PUSH4 0x70A08231 SWAP1 PUSH1 0x24 ADD PUSH1 0x20 PUSH1 0x40 MLOAD DUP1 DUP4 SUB DUP2 DUP7 GAS STATICCALL ISZERO DUP1 ISZERO PUSH2 0x4B4 JUMPI RETURNDATASIZE PUSH1 0x0 DUP1 RETURNDATACOPY RETURNDATASIZE PUSH1 0x0 REVERT JUMPDEST POP POP POP POP PUSH1 0x40 MLOAD RETURNDATASIZE PUSH1 0x1F NOT PUSH1 0x1F DUP3 ADD AND DUP3 ADD DUP1 PUSH1 0x40 MSTORE POP DUP2 ADD SWAP1 PUSH2 0x4D8 SWAP2 SWAP1 PUSH2 0xFA9 JUMP JUMPDEST PUSH1 0x40 MLOAD PUSH1 0x1 PUSH1 0x1 PUSH1 0xE0 SHL SUB NOT PUSH1 0xE0 DUP6 SWAP1 SHL AND DUP2 MSTORE PUSH1 0x1 PUSH1 0x1 PUSH1 0xA0 SHL SUB SWAP1 SWAP3 AND PUSH1 0x4 DUP4 ADD MSTORE PUSH1 0x24 DUP3 ADD MSTORE PUSH1 0x44 ADD PUSH1 0x20 PUSH1 0x40 MLOAD DUP1 DUP4 SUB DUP2 PUSH1 0x0 DUP8 GAS CALL ISZERO DUP1 ISZERO PUSH2 0x523 JUMPI RETURNDATASIZE PUSH1 0x0 DUP1 RETURNDATACOPY RETURNDATASIZE PUSH1 0x0 REVERT JUMPDEST POP POP POP POP PUSH1 0x40 MLOAD RETURNDATASIZE PUSH1 0x1F NOT PUSH1 0x1F DUP3 ADD AND DUP3 ADD DUP1 PUSH1 0x40 MSTORE POP DUP2 ADD SWAP1 PUSH2 0x547 SWAP2 SWAP1 PUSH2 0xFC2 JUMP JUMPDEST PUSH2 0x593 JUMPI PUSH1 0x40 MLOAD PUSH3 0x461BCD PUSH1 0xE5 SHL DUP2 MSTORE PUSH1 0x20 PUSH1 0x4 DUP3 ADD MSTORE PUSH1 0x12 PUSH1 0x24 DUP3 ADD MSTORE PUSH32 0x556E61626C6520746F207472616E736665720000000000000000000000000000 PUSH1 0x44 DUP3 ADD MSTORE PUSH1 0x64 ADD PUSH2 0x183 JUMP JUMPDEST POP JUMP JUMPDEST PUSH2 0x59E PUSH2 0x69C JUMP JUMPDEST PUSH2 0x593 DUP2 PUSH2 0x6F8 JUMP JUMPDEST PUSH2 0x5E5 PUSH1 0x40 DUP1 MLOAD PUSH1 0xA0 DUP2 ADD DUP3 MSTORE PUSH1 0x0 DUP1 DUP3 MSTORE PUSH1 0x20 DUP1 DUP4 ADD DUP3 SWAP1 MSTORE DUP3 DUP5 ADD DUP3 SWAP1 MSTORE PUSH1 0x60 DUP1 DUP5 ADD DUP4 SWAP1 MSTORE DUP5 MLOAD DUP1 DUP7 ADD SWAP1 SWAP6 MSTORE DUP5 MSTORE DUP4 ADD MSTORE SWAP1 PUSH1 0x80 DUP3 ADD MSTORE SWAP1 JUMP JUMPDEST PUSH2 0x623 PUSH1 0x40 DUP1 MLOAD PUSH1 0xA0 DUP2 ADD DUP3 MSTORE PUSH1 0x0 DUP1 DUP3 MSTORE PUSH1 0x20 DUP1 DUP4 ADD DUP3 SWAP1 MSTORE DUP3 DUP5 ADD DUP3 SWAP1 MSTORE PUSH1 0x60 DUP1 DUP5 ADD DUP4 SWAP1 MSTORE DUP5 MLOAD DUP1 DUP7 ADD SWAP1 SWAP6 MSTORE DUP5 MSTORE DUP4 ADD MSTORE SWAP1 PUSH1 0x80 DUP3 ADD MSTORE SWAP1 JUMP JUMPDEST PUSH2 0x62F DUP2 DUP7 DUP7 DUP7 PUSH2 0x7AF JUMP JUMPDEST SWAP6 SWAP5 POP POP POP POP POP JUMP JUMPDEST PUSH1 0x80 DUP4 ADD MLOAD PUSH2 0x647 SWAP1 DUP4 PUSH2 0x82B JUMP JUMPDEST PUSH1 0x80 DUP4 ADD MLOAD PUSH2 0x656 SWAP1 DUP3 PUSH2 0x82B JUMP JUMPDEST POP POP POP JUMP JUMPDEST PUSH1 0x80 DUP4 ADD MLOAD PUSH2 0x66A SWAP1 DUP4 PUSH2 0x82B JUMP JUMPDEST PUSH1 0x80 DUP4 ADD MLOAD PUSH2 0x656 SWAP1 DUP3 PUSH2 0x842 JUMP JUMPDEST PUSH1 0x3 SLOAD PUSH1 0x0 SWAP1 PUSH2 0x693 SWAP1 PUSH1 0x1 PUSH1 0x1 PUSH1 0xA0 SHL SUB AND DUP5 DUP5 PUSH2 0x8A6 JUMP JUMPDEST SWAP1 POP JUMPDEST SWAP3 SWAP2 POP POP JUMP JUMPDEST PUSH1 0x6 SLOAD PUSH1 0x1 PUSH1 0x1 PUSH1 0xA0 SHL SUB AND CALLER EQ PUSH2 0x6F6 JUMPI PUSH1 0x40 MLOAD PUSH3 0x461BCD PUSH1 0xE5 SHL DUP2 MSTORE PUSH1 0x20 PUSH1 0x4 DUP3 ADD MSTORE PUSH1 0x16 PUSH1 0x24 DUP3 ADD MSTORE PUSH32 0x4F6E6C792063616C6C61626C65206279206F776E657200000000000000000000 PUSH1 0x44 DUP3 ADD MSTORE PUSH1 0x64 ADD PUSH2 0x183 JUMP JUMPDEST JUMP JUMPDEST CALLER PUSH1 0x1 PUSH1 0x1 PUSH1 0xA0 SHL SUB DUP3 AND SUB PUSH2 0x750 JUMPI PUSH1 0x40 MLOAD PUSH3 0x461BCD PUSH1 0xE5 SHL DUP2 MSTORE PUSH1 0x20 PUSH1 0x4 DUP3 ADD MSTORE PUSH1 0x17 PUSH1 0x24 DUP3 ADD MSTORE PUSH32 0x43616E6E6F74207472616E7366657220746F2073656C66000000000000000000 PUSH1 0x44 DUP3 ADD MSTORE PUSH1 0x64 ADD PUSH2 0x183 JUMP JUMPDEST PUSH1 0x7 DUP1 SLOAD PUSH20 0xFFFFFFFFFFFFFFFFFFFFFFFFFFFFFFFFFFFFFFFF NOT AND PUSH1 0x1 PUSH1 0x1 PUSH1 0xA0 SHL SUB DUP4 DUP2 AND SWAP2 DUP3 OR SWAP1 SWAP3 SSTORE PUSH1 0x6 SLOAD PUSH1 0x40 MLOAD SWAP2 SWAP3 AND SWAP1 PUSH32 0xED8889F560326EB138920D842192F0EB3DD22B4F139C87A2C57538E05BAE1278 SWAP1 PUSH1 0x0 SWAP1 LOG3 POP JUMP JUMPDEST PUSH2 0x7ED PUSH1 0x40 DUP1 MLOAD PUSH1 0xA0 DUP2 ADD DUP3 MSTORE PUSH1 0x0 DUP1 DUP3 MSTORE PUSH1 0x20 DUP1 DUP4 ADD DUP3 SWAP1 MSTORE DUP3 DUP5 ADD DUP3 SWAP1 MSTORE PUSH1 0x60 DUP1 DUP5 ADD DUP4 SWAP1 MSTORE DUP5 MLOAD DUP1 DUP7 ADD SWAP1 SWAP6 MSTORE DUP5 MSTORE DUP4 ADD MSTORE SWAP1 PUSH1 0x80 DUP3 ADD MSTORE SWAP1 JUMP JUMPDEST PUSH2 0x7FD DUP6 PUSH1 0x80 ADD MLOAD PUSH2 0x100 PUSH2 0x967 JUMP JUMPDEST POP POP DUP3 DUP5 MSTORE PUSH1 0x1 PUSH1 0x1 PUSH1 0xA0 SHL SUB DUP3 AND PUSH1 0x20 DUP6 ADD MSTORE PUSH1 0x1 PUSH1 0x1 PUSH1 0xE0 SHL SUB NOT DUP2 AND PUSH1 0x40 DUP6 ADD MSTORE DUP4 JUMPDEST SWAP5 SWAP4 POP POP POP POP JUMP JUMPDEST PUSH2 0x838 DUP3 PUSH1 0x3 DUP4 MLOAD PUSH2 0x9CC JUMP JUMPDEST PUSH2 0x656 DUP3 DUP3 PUSH2 0xAE1 JUMP JUMPDEST PUSH8 0xFFFFFFFFFFFFFFFF NOT DUP2 SLT ISZERO PUSH2 0x861 JUMPI PUSH2 0x85D DUP3 DUP3 PUSH2 0xB08 JUMP JUMPDEST POP POP JUMP JUMPDEST PUSH8 0xFFFFFFFFFFFFFFFF DUP2 SGT ISZERO PUSH2 0x87B JUMPI PUSH2 0x85D DUP3 DUP3 PUSH2 0xB4A JUMP JUMPDEST PUSH1 0x0 DUP2 SLT PUSH2 0x88F JUMPI PUSH2 0x85D DUP3 PUSH1 0x0 DUP4 PUSH2 0x9CC JUMP JUMPDEST PUSH2 0x85D DUP3 PUSH1 0x1 PUSH2 0x8A1 DUP5 PUSH1 0x0 NOT PUSH2 0xFFA JUMP JUMPDEST PUSH2 0x9CC JUMP JUMPDEST PUSH1 0x4 SLOAD PUSH1 0x0 SWAP1 PUSH2 0x8B7 DUP2 PUSH1 0x1 PUSH2 0x1021 JUMP JUMPDEST PUSH1 0x4 SSTORE DUP4 MLOAD PUSH1 0x40 DUP1 DUP7 ADD MLOAD PUSH1 0x80 DUP8 ADD MLOAD MLOAD SWAP2 MLOAD PUSH1 0x0 SWAP4 PUSH32 0x4042994600000000000000000000000000000000000000000000000000000000 SWAP4 PUSH2 0x908 SWAP4 DUP7 SWAP4 DUP5 SWAP4 SWAP3 ADDRESS SWAP3 SWAP2 DUP11 SWAP2 PUSH1 0x1 SWAP2 PUSH1 0x24 ADD PUSH2 0x107A JUMP JUMPDEST PUSH1 0x40 DUP1 MLOAD PUSH1 0x1F NOT DUP2 DUP5 SUB ADD DUP2 MSTORE SWAP2 SWAP1 MSTORE PUSH1 0x20 DUP2 ADD DUP1 MLOAD PUSH28 0xFFFFFFFFFFFFFFFFFFFFFFFFFFFFFFFFFFFFFFFFFFFFFFFFFFFFFFFF AND PUSH1 0x1 PUSH1 0x1 PUSH1 0xE0 SHL SUB NOT SWAP1 SWAP4 AND SWAP3 SWAP1 SWAP3 OR SWAP1 SWAP2 MSTORE SWAP1 POP PUSH2 0x95D DUP7 DUP4 DUP7 DUP5 PUSH2 0xB6D JUMP JUMPDEST SWAP7 SWAP6 POP POP POP POP POP POP JUMP JUMPDEST PUSH1 0x40 DUP1 MLOAD DUP1 DUP3 ADD SWAP1 SWAP2 MSTORE PUSH1 0x60 DUP2 MSTORE PUSH1 0x0 PUSH1 0x20 DUP3 ADD MSTORE PUSH2 0x987 PUSH1 0x20 DUP4 PUSH2 0x10DE JUMP JUMPDEST ISZERO PUSH2 0x9AF JUMPI PUSH2 0x997 PUSH1 0x20 DUP4 PUSH2 0x10DE JUMP JUMPDEST PUSH2 0x9A2 SWAP1 PUSH1 0x20 PUSH2 0x1100 JUMP JUMPDEST PUSH2 0x9AC SWAP1 DUP4 PUSH2 0x1021 JUMP JUMPDEST SWAP2 POP JUMPDEST POP PUSH1 0x20 DUP3 DUP2 ADD DUP3 SWAP1 MSTORE PUSH1 0x40 DUP1 MLOAD DUP1 DUP6 MSTORE PUSH1 0x0 DUP2 MSTORE SWAP1 SWAP3 ADD ADD SWAP1 MSTORE SWAP1 JUMP JUMPDEST PUSH1 0x17 DUP2 PUSH8 0xFFFFFFFFFFFFFFFF AND GT PUSH2 0x9F7 JUMPI PUSH2 0x9F1 DUP4 PUSH1 0xE0 PUSH1 0x5 DUP6 SWAP1 SHL AND DUP4 OR PUSH2 0xD0B JUMP JUMPDEST POP POP POP POP JUMP JUMPDEST PUSH1 0xFF DUP2 PUSH8 0xFFFFFFFFFFFFFFFF AND GT PUSH2 0xA35 JUMPI PUSH2 0xA1E DUP4 PUSH1 0x18 PUSH2 0x1FE0 PUSH1 0x5 DUP7 SWAP1 SHL AND OR PUSH2 0xD0B JUMP JUMPDEST POP PUSH2 0x9F1 DUP4 PUSH8 0xFFFFFFFFFFFFFFFF DUP4 AND PUSH1 0x1 PUSH2 0xD30 JUMP JUMPDEST PUSH2 0xFFFF DUP2 PUSH8 0xFFFFFFFFFFFFFFFF AND GT PUSH2 0xA74 JUMPI PUSH2 0xA5D DUP4 PUSH1 0x19 PUSH2 0x1FE0 PUSH1 0x5 DUP7 SWAP1 SHL AND OR PUSH2 0xD0B JUMP JUMPDEST POP PUSH2 0x9F1 DUP4 PUSH8 0xFFFFFFFFFFFFFFFF DUP4 AND PUSH1 0x2 PUSH2 0xD30 JUMP JUMPDEST PUSH4 0xFFFFFFFF DUP2 PUSH8 0xFFFFFFFFFFFFFFFF AND GT PUSH2 0xAB5 JUMPI PUSH2 0xA9E DUP4 PUSH1 0x1A PUSH2 0x1FE0 PUSH1 0x5 DUP7 SWAP1 SHL AND OR PUSH2 0xD0B JUMP JUMPDEST POP PUSH2 0x9F1 DUP4 PUSH8 0xFFFFFFFFFFFFFFFF DUP4 AND PUSH1 0x4 PUSH2 0xD30 JUMP JUMPDEST PUSH2 0xACA DUP4 PUSH1 0x1B PUSH2 0x1FE0 PUSH1 0x5 DUP7 SWAP1 SHL AND OR PUSH2 0xD0B JUMP JUMPDEST POP PUSH2 0x9F1 DUP4 PUSH8 0xFFFFFFFFFFFFFFFF DUP4 AND PUSH1 0x8 PUSH2 0xD30 JUMP JUMPDEST PUSH1 0x40 DUP1 MLOAD DUP1 DUP3 ADD SWAP1 SWAP2 MSTORE PUSH1 0x60 DUP2 MSTORE PUSH1 0x0 PUSH1 0x20 DUP3 ADD MSTORE PUSH2 0x693 DUP4 DUP5 PUSH1 0x0 ADD MLOAD MLOAD DUP5 DUP6 MLOAD PUSH2 0xD56 JUMP JUMPDEST PUSH2 0xB13 DUP3 PUSH1 0xC3 PUSH2 0xD0B JUMP JUMPDEST POP PUSH2 0x85D DUP3 PUSH2 0xB24 DUP4 PUSH1 0x0 NOT PUSH2 0xFFA JUMP JUMPDEST PUSH1 0x40 MLOAD PUSH1 0x20 ADD PUSH2 0xB36 SWAP2 DUP2 MSTORE PUSH1 0x20 ADD SWAP1 JUMP JUMPDEST PUSH1 0x40 MLOAD PUSH1 0x20 DUP2 DUP4 SUB SUB DUP2 MSTORE SWAP1 PUSH1 0x40 MSTORE PUSH2 0xE40 JUMP JUMPDEST PUSH2 0xB55 DUP3 PUSH1 0xC2 PUSH2 0xD0B JUMP JUMPDEST POP PUSH2 0x85D DUP3 DUP3 PUSH1 0x40 MLOAD PUSH1 0x20 ADD PUSH2 0xB36 SWAP2 DUP2 MSTORE PUSH1 0x20 ADD SWAP1 JUMP JUMPDEST PUSH1 0x40 MLOAD PUSH12 0xFFFFFFFFFFFFFFFFFFFFFFFF NOT ADDRESS PUSH1 0x60 SHL AND PUSH1 0x20 DUP3 ADD MSTORE PUSH1 0x34 DUP2 ADD DUP5 SWAP1 MSTORE PUSH1 0x0 SWAP1 PUSH1 0x54 ADD PUSH1 0x40 DUP1 MLOAD DUP1 DUP4 SUB PUSH1 0x1F NOT ADD DUP2 MSTORE DUP3 DUP3 MSTORE DUP1 MLOAD PUSH1 0x20 SWAP2 DUP3 ADD KECCAK256 PUSH1 0x0 DUP2 DUP2 MSTORE PUSH1 0x5 SWAP1 SWAP3 MSTORE SWAP2 DUP2 KECCAK256 DUP1 SLOAD PUSH20 0xFFFFFFFFFFFFFFFFFFFFFFFFFFFFFFFFFFFFFFFF NOT AND PUSH1 0x1 PUSH1 0x1 PUSH1 0xA0 SHL SUB DUP11 AND OR SWAP1 SSTORE SWAP1 SWAP3 POP DUP3 SWAP2 PUSH32 0xB5E6E01E79F91267DC17B4E6314D5D4D03593D2CEEE0FBB452B750BD70EA5AF9 SWAP2 SWAP1 LOG2 PUSH1 0x2 SLOAD PUSH1 0x40 MLOAD PUSH32 0x4000AEA000000000000000000000000000000000000000000000000000000000 DUP2 MSTORE PUSH1 0x1 PUSH1 0x1 PUSH1 0xA0 SHL SUB SWAP1 SWAP2 AND SWAP1 PUSH4 0x4000AEA0 SWAP1 PUSH2 0xC56 SWAP1 DUP9 SWAP1 DUP8 SWAP1 DUP8 SWAP1 PUSH1 0x4 ADD PUSH2 0x1113 JUMP JUMPDEST PUSH1 0x20 PUSH1 0x40 MLOAD DUP1 DUP4 SUB DUP2 PUSH1 0x0 DUP8 GAS CALL ISZERO DUP1 ISZERO PUSH2 0xC75 JUMPI RETURNDATASIZE PUSH1 0x0 DUP1 RETURNDATACOPY RETURNDATASIZE PUSH1 0x0 REVERT JUMPDEST POP POP POP POP PUSH1 0x40 MLOAD RETURNDATASIZE PUSH1 0x1F NOT PUSH1 0x1F DUP3 ADD AND DUP3 ADD DUP1 PUSH1 0x40 MSTORE POP DUP2 ADD SWAP1 PUSH2 0xC99 SWAP2 SWAP1 PUSH2 0xFC2 JUMP JUMPDEST PUSH2 0x823 JUMPI PUSH1 0x40 MLOAD PUSH3 0x461BCD PUSH1 0xE5 SHL DUP2 MSTORE PUSH1 0x20 PUSH1 0x4 DUP3 ADD MSTORE PUSH1 0x23 PUSH1 0x24 DUP3 ADD MSTORE PUSH32 0x756E61626C6520746F207472616E73666572416E6443616C6C20746F206F7261 PUSH1 0x44 DUP3 ADD MSTORE PUSH32 0x636C650000000000000000000000000000000000000000000000000000000000 PUSH1 0x64 DUP3 ADD MSTORE PUSH1 0x84 ADD PUSH2 0x183 JUMP JUMPDEST PUSH1 0x40 DUP1 MLOAD DUP1 DUP3 ADD SWAP1 SWAP2 MSTORE PUSH1 0x60 DUP2 MSTORE PUSH1 0x0 PUSH1 0x20 DUP3 ADD MSTORE PUSH2 0x693 DUP4 DUP5 PUSH1 0x0 ADD MLOAD MLOAD DUP5 PUSH2 0xE4D JUMP JUMPDEST PUSH1 0x40 DUP1 MLOAD DUP1 DUP3 ADD SWAP1 SWAP2 MSTORE PUSH1 0x60 DUP2 MSTORE PUSH1 0x0 PUSH1 0x20 DUP3 ADD MSTORE PUSH2 0x823 DUP5 DUP6 PUSH1 0x0 ADD MLOAD MLOAD DUP6 DUP6 PUSH2 0xEA8 JUMP JUMPDEST PUSH1 0x40 DUP1 MLOAD DUP1 DUP3 ADD SWAP1 SWAP2 MSTORE PUSH1 0x60 DUP2 MSTORE PUSH1 0x0 PUSH1 0x20 DUP3 ADD MSTORE DUP3 MLOAD DUP3 GT ISZERO PUSH2 0xD79 JUMPI PUSH1 0x0 DUP1 REVERT JUMPDEST PUSH1 0x20 DUP6 ADD MLOAD PUSH2 0xD88 DUP4 DUP7 PUSH2 0x1021 JUMP JUMPDEST GT ISZERO PUSH2 0xDBB JUMPI PUSH2 0xDBB DUP6 PUSH2 0xDAB DUP8 PUSH1 0x20 ADD MLOAD DUP8 DUP7 PUSH2 0xDA6 SWAP2 SWAP1 PUSH2 0x1021 JUMP JUMPDEST PUSH2 0xF29 JUMP JUMPDEST PUSH2 0xDB6 SWAP1 PUSH1 0x2 PUSH2 0x113B JUMP JUMPDEST PUSH2 0xF40 JUMP JUMPDEST PUSH1 0x0 DUP1 DUP7 MLOAD DUP1 MLOAD DUP8 PUSH1 0x20 DUP4 ADD ADD SWAP4 POP DUP1 DUP9 DUP8 ADD GT ISZERO PUSH2 0xDDA JUMPI DUP8 DUP7 ADD DUP3 MSTORE JUMPDEST POP POP POP PUSH1 0x20 DUP5 ADD JUMPDEST PUSH1 0x20 DUP5 LT PUSH2 0xE1A JUMPI DUP1 MLOAD DUP3 MSTORE PUSH2 0xDF9 PUSH1 0x20 DUP4 PUSH2 0x1021 JUMP JUMPDEST SWAP2 POP PUSH2 0xE06 PUSH1 0x20 DUP3 PUSH2 0x1021 JUMP JUMPDEST SWAP1 POP PUSH2 0xE13 PUSH1 0x20 DUP6 PUSH2 0x1100 JUMP JUMPDEST SWAP4 POP PUSH2 0xDE2 JUMP JUMPDEST MLOAD DUP2 MLOAD PUSH1 0x0 NOT PUSH1 0x20 DUP7 SWAP1 SUB PUSH2 0x100 EXP ADD SWAP1 DUP2 AND SWAP1 NOT SWAP2 SWAP1 SWAP2 AND OR SWAP1 MSTORE POP DUP4 SWAP5 SWAP4 POP POP POP POP JUMP JUMPDEST PUSH2 0x838 DUP3 PUSH1 0x2 DUP4 MLOAD PUSH2 0x9CC JUMP JUMPDEST PUSH1 0x40 DUP1 MLOAD DUP1 DUP3 ADD SWAP1 SWAP2 MSTORE PUSH1 0x60 DUP2 MSTORE PUSH1 0x0 PUSH1 0x20 DUP3 ADD MSTORE DUP4 PUSH1 0x20 ADD MLOAD DUP4 LT PUSH2 0xE82 JUMPI PUSH2 0xE82 DUP5 DUP6 PUSH1 0x20 ADD MLOAD PUSH1 0x2 PUSH2 0xDB6 SWAP2 SWAP1 PUSH2 0x113B JUMP JUMPDEST DUP4 MLOAD DUP1 MLOAD PUSH1 0x20 DUP6 DUP4 ADD ADD DUP5 DUP2 MSTORE8 POP DUP1 DUP6 SUB PUSH2 0xE9E JUMPI PUSH1 0x1 DUP2 ADD DUP3 MSTORE JUMPDEST POP SWAP4 SWAP5 SWAP4 POP POP POP POP JUMP JUMPDEST PUSH1 0x40 DUP1 MLOAD DUP1 DUP3 ADD SWAP1 SWAP2 MSTORE PUSH1 0x60 DUP2 MSTORE PUSH1 0x0 PUSH1 0x20 DUP3 ADD MSTORE PUSH1 0x20 DUP6 ADD MLOAD PUSH2 0xECC DUP6 DUP5 PUSH2 0x1021 JUMP JUMPDEST GT ISZERO PUSH2 0xEE0 JUMPI PUSH2 0xEE0 DUP6 PUSH2 0xDAB DUP7 DUP6 PUSH2 0x1021 JUMP JUMPDEST PUSH1 0x0 PUSH1 0x1 PUSH2 0xEF0 DUP5 PUSH2 0x100 PUSH2 0x1236 JUMP JUMPDEST PUSH2 0xEFA SWAP2 SWAP1 PUSH2 0x1100 JUMP JUMPDEST SWAP1 POP DUP6 MLOAD DUP4 DUP7 DUP3 ADD ADD DUP6 DUP4 NOT DUP3 MLOAD AND OR DUP2 MSTORE POP DUP1 MLOAD DUP5 DUP8 ADD GT ISZERO PUSH2 0xF1E JUMPI DUP4 DUP7 ADD DUP2 MSTORE JUMPDEST POP SWAP5 SWAP6 SWAP5 POP POP POP POP POP JUMP JUMPDEST PUSH1 0x0 DUP2 DUP4 GT ISZERO PUSH2 0xF3A JUMPI POP DUP2 PUSH2 0x696 JUMP JUMPDEST POP SWAP2 SWAP1 POP JUMP JUMPDEST DUP2 MLOAD PUSH2 0xF4C DUP4 DUP4 PUSH2 0x967 JUMP JUMPDEST POP PUSH2 0x9F1 DUP4 DUP3 PUSH2 0xAE1 JUMP JUMPDEST PUSH1 0x0 DUP1 PUSH1 0x40 DUP4 DUP6 SUB SLT ISZERO PUSH2 0xF6A JUMPI PUSH1 0x0 DUP1 REVERT JUMPDEST POP POP DUP1 CALLDATALOAD SWAP3 PUSH1 0x20 SWAP1 SWAP2 ADD CALLDATALOAD SWAP2 POP JUMP JUMPDEST PUSH1 0x0 PUSH1 0x20 DUP3 DUP5 SUB SLT ISZERO PUSH2 0xF8B JUMPI PUSH1 0x0 DUP1 REVERT JUMPDEST DUP2 CALLDATALOAD PUSH1 0x1 PUSH1 0x1 PUSH1 0xA0 SHL SUB DUP2 AND DUP2 EQ PUSH2 0xFA2 JUMPI PUSH1 0x0 DUP1 REVERT JUMPDEST SWAP4 SWAP3 POP POP POP JUMP JUMPDEST PUSH1 0x0 PUSH1 0x20 DUP3 DUP5 SUB SLT ISZERO PUSH2 0xFBB JUMPI PUSH1 0x0 DUP1 REVERT JUMPDEST POP MLOAD SWAP2 SWAP1 POP JUMP JUMPDEST PUSH1 0x0 PUSH1 0x20 DUP3 DUP5 SUB SLT ISZERO PUSH2 0xFD4 JUMPI PUSH1 0x0 DUP1 REVERT JUMPDEST DUP2 MLOAD DUP1 ISZERO ISZERO DUP2 EQ PUSH2 0xFA2 JUMPI PUSH1 0x0 DUP1 REVERT JUMPDEST PUSH4 0x4E487B71 PUSH1 0xE0 SHL PUSH1 0x0 MSTORE PUSH1 0x11 PUSH1 0x4 MSTORE PUSH1 0x24 PUSH1 0x0 REVERT JUMPDEST DUP2 DUP2 SUB PUSH1 0x0 DUP4 SLT DUP1 ISZERO DUP4 DUP4 SGT AND DUP4 DUP4 SLT DUP3 AND OR ISZERO PUSH2 0x101A JUMPI PUSH2 0x101A PUSH2 0xFE4 JUMP JUMPDEST POP SWAP3 SWAP2 POP POP JUMP JUMPDEST DUP1 DUP3 ADD DUP1 DUP3 GT ISZERO PUSH2 0x696 JUMPI PUSH2 0x696 PUSH2 0xFE4 JUMP JUMPDEST PUSH1 0x0 DUP2 MLOAD DUP1 DUP5 MSTORE PUSH1 0x0 JUMPDEST DUP2 DUP2 LT ISZERO PUSH2 0x105A JUMPI PUSH1 0x20 DUP2 DUP6 ADD DUP2 ADD MLOAD DUP7 DUP4 ADD DUP3 ADD MSTORE ADD PUSH2 0x103E JUMP JUMPDEST POP PUSH1 0x0 PUSH1 0x20 DUP3 DUP7 ADD ADD MSTORE PUSH1 0x20 PUSH1 0x1F NOT PUSH1 0x1F DUP4 ADD AND DUP6 ADD ADD SWAP2 POP POP SWAP3 SWAP2 POP POP JUMP JUMPDEST PUSH1 0x0 PUSH2 0x100 PUSH1 0x1 PUSH1 0x1 PUSH1 0xA0 SHL SUB DUP1 DUP13 AND DUP5 MSTORE DUP11 PUSH1 0x20 DUP6 ADD MSTORE DUP10 PUSH1 0x40 DUP6 ADD MSTORE DUP1 DUP10 AND PUSH1 0x60 DUP6 ADD MSTORE POP PUSH1 0x1 PUSH1 0x1 PUSH1 0xE0 SHL SUB NOT DUP8 AND PUSH1 0x80 DUP5 ADD MSTORE DUP6 PUSH1 0xA0 DUP5 ADD MSTORE DUP5 PUSH1 0xC0 DUP5 ADD MSTORE DUP1 PUSH1 0xE0 DUP5 ADD MSTORE PUSH2 0x10CF DUP2 DUP5 ADD DUP6 PUSH2 0x1034 JUMP JUMPDEST SWAP12 SWAP11 POP POP POP POP POP POP POP POP POP POP POP JUMP JUMPDEST PUSH1 0x0 DUP3 PUSH2 0x10FB JUMPI PUSH4 0x4E487B71 PUSH1 0xE0 SHL PUSH1 0x0 MSTORE PUSH1 0x12 PUSH1 0x4 MSTORE PUSH1 0x24 PUSH1 0x0 REVERT JUMPDEST POP MOD SWAP1 JUMP JUMPDEST DUP2 DUP2 SUB DUP2 DUP2 GT ISZERO PUSH2 0x696 JUMPI PUSH2 0x696 PUSH2 0xFE4 JUMP JUMPDEST PUSH1 0x1 PUSH1 0x1 PUSH1 0xA0 SHL SUB DUP5 AND DUP2 MSTORE DUP3 PUSH1 0x20 DUP3 ADD MSTORE PUSH1 0x60 PUSH1 0x40 DUP3 ADD MSTORE PUSH1 0x0 PUSH2 0x62F PUSH1 0x60 DUP4 ADD DUP5 PUSH2 0x1034 JUMP JUMPDEST DUP1 DUP3 MUL DUP2 ISZERO DUP3 DUP3 DIV DUP5 EQ OR PUSH2 0x696 JUMPI PUSH2 0x696 PUSH2 0xFE4 JUMP JUMPDEST PUSH1 0x1 DUP2 DUP2 JUMPDEST DUP1 DUP6 GT ISZERO PUSH2 0x118D JUMPI DUP2 PUSH1 0x0 NOT DIV DUP3 GT ISZERO PUSH2 0x1173 JUMPI PUSH2 0x1173 PUSH2 0xFE4 JUMP JUMPDEST DUP1 DUP6 AND ISZERO PUSH2 0x1180 JUMPI SWAP2 DUP2 MUL SWAP2 JUMPDEST SWAP4 DUP5 SHR SWAP4 SWAP1 DUP1 MUL SWAP1 PUSH2 0x1157 JUMP JUMPDEST POP SWAP3 POP SWAP3 SWAP1 POP JUMP JUMPDEST PUSH1 0x0 DUP3 PUSH2 0x11A4 JUMPI POP PUSH1 0x1 PUSH2 0x696 JUMP JUMPDEST DUP2 PUSH2 0x11B1 JUMPI POP PUSH1 0x0 PUSH2 0x696 JUMP JUMPDEST DUP2 PUSH1 0x1 DUP2 EQ PUSH2 0x11C7 JUMPI PUSH1 0x2 DUP2 EQ PUSH2 0x11D1 JUMPI PUSH2 0x11ED JUMP JUMPDEST PUSH1 0x1 SWAP2 POP POP PUSH2 0x696 JUMP JUMPDEST PUSH1 0xFF DUP5 GT ISZERO PUSH2 0x11E2 JUMPI PUSH2 0x11E2 PUSH2 0xFE4 JUMP JUMPDEST POP POP PUSH1 0x1 DUP3 SHL PUSH2 0x696 JUMP JUMPDEST POP PUSH1 0x20 DUP4 LT PUSH2 0x133 DUP4 LT AND PUSH1 0x4E DUP5 LT PUSH1 0xB DUP5 LT AND OR ISZERO PUSH2 0x1210 JUMPI POP DUP2 DUP2 EXP PUSH2 0x696 JUMP JUMPDEST PUSH2 0x121A DUP4 DUP4 PUSH2 0x1152 JUMP JUMPDEST DUP1 PUSH1 0x0 NOT DIV DUP3 GT ISZERO PUSH2 0x122E JUMPI PUSH2 0x122E PUSH2 0xFE4 JUMP JUMPDEST MUL SWAP4 SWAP3 POP POP POP JUMP JUMPDEST PUSH1 0x0 PUSH2 0x693 DUP4 DUP4 PUSH2 0x1195 JUMP INVALID PUSH9 0x747470733A2F2F6D69 PUSH15 0x2D6170692E63727970746F636F6D70 PUSH2 0x7265 0x2E PUSH4 0x6F6D2F64 PUSH2 0x7461 0x2F PUSH17 0x726963656D756C746966756C6C3F667379 PUSH14 0x733D455448267473796D733D5553 DIFFICULTY LOG2 PUSH5 0x6970667358 0x22 SLT KECCAK256 DUP8 ADD 0xE0 EXTCODESIZE PUSH16 0x71B2A1B5320503324976F01438B2B2CE PUSH3 0x79973F 0xCC 0xC1 CREATE2 EQ PUSH5 0xAE2C64736F PUSH13 0x63430008110033000000000000 "},"gasEstimates":{"creation":{"codeDepositCost":"960200","executionCost":"infinite","totalCost":"infinite"},"external":{"acceptOwnership()":"52341","fulfill(bytes32,uint256)":"51441","owner()":"2301","requestVolumeData()":"infinite","transferOwnership(address)":"30455","volume()":"2328","withdrawLink()":"infinite"}},"methodIdentifiers":{"acceptOwnership()":"79ba5097","fulfill(bytes32,uint256)":"4357855e","owner()":"8da5cb5b","requestVolumeData()":"6021abac","transferOwnership(address)":"f2fde38b","volume()":"c618a1e4","withdrawLink()":"8dc654a2"}},"storageLayout":{"storage":[{"astId":319,"contract":"contracts/EduAPIDataOracle.sol:EduAPIDataOracle","label":"s_ens","offset":0,"slot":"0","type":"t_contract(ENSInterface)1327"},{"astId":321,"contract":"contracts/EduAPIDataOracle.sol:EduAPIDataOracle","label":"s_ensNode","offset":0,"slot":"1","type":"t_bytes32"},{"astId":324,"contract":"contracts/EduAPIDataOracle.sol:EduAPIDataOracle","label":"s_link","offset":0,"slot":"2","type":"t_contract(LinkTokenInterface)1422"},{"astId":327,"contract":"contracts/EduAPIDataOracle.sol:EduAPIDataOracle","label":"s_oracle","offset":0,"slot":"3","type":"t_contract(OperatorInterface)1502"},{"astId":330,"contract":"contracts/EduAPIDataOracle.sol:EduAPIDataOracle","label":"s_requestCount","offset":0,"slot":"4","type":"t_uint256"},{"astId":334,"contract":"contracts/EduAPIDataOracle.sol:EduAPIDataOracle","label":"s_pendingRequests","offset":0,"slot":"5","type":"t_mapping(t_bytes32,t_address)"},{"astId":889,"contract":"contracts/EduAPIDataOracle.sol:EduAPIDataOracle","label":"s_owner","offset":0,"slot":"6","type":"t_address"},{"astId":891,"contract":"contracts/EduAPIDataOracle.sol:EduAPIDataOracle","label":"s_pendingOwner","offset":0,"slot":"7","type":"t_address"},{"astId":2944,"contract":"contracts/EduAPIDataOracle.sol:EduAPIDataOracle","label":"volume","offset":0,"slot":"8","type":"t_uint256"},{"astId":2946,"contract":"contracts/EduAPIDataOracle.sol:EduAPIDataOracle","label":"jobId","offset":0,"slot":"9","type":"t_bytes32"},{"astId":2948,"contract":"contracts/EduAPIDataOracle.sol:EduAPIDataOracle","label":"fee","offset":0,"slot":"10","type":"t_uint256"}],"types":{"t_address":{"encoding":"inplace","label":"address","numberOfBytes":"20"},"t_bytes32":{"encoding":"inplace","label":"bytes32","numberOfBytes":"32"},"t_contract(ENSInterface)1327":{"encoding":"inplace","label":"contract ENSInterface","numberOfBytes":"20"},"t_contract(LinkTokenInterface)1422":{"encoding":"inplace","label":"contract LinkTokenInterface","numberOfBytes":"20"},"t_contract(OperatorInterface)1502":{"encoding":"inplace","label":"contract OperatorInterface","numberOfBytes":"20"},"t_mapping(t_bytes32,t_address)":{"encoding":"mapping","key":"t_bytes32","label":"mapping(bytes32 => address)","numberOfBytes":"32","value":"t_address"},"t_uint256":{"encoding":"inplace","label":"uint256","numberOfBytes":"32"}}},"userdoc":{"kind":"user","methods":{"acceptOwnership()":{"notice":"Allows an ownership transfer to be completed by the recipient."},"constructor":{"notice":"Устанавливается контракт с адресом оракула, идентификатором задания и платой LINK, которую оракул взимает за задание. Goerli Testnet details: Link Token: 0x326C977E6efc84E512bB9C30f76E30c160eD06FB Oracle: 0xCC79157eb46F5624204f47AB42b3906cAA40eaB7 (Chainlink DevRel) jobId: ca98366cc7314957b8c012c72f05aeeb"},"fulfill(bytes32,uint256)":{"notice":"Именно сюда отправляется результат по завершении задания"},"owner()":{"notice":"Get the current owner"},"requestVolumeData()":{"notice":"Создает и отправляет запрос - который включает селектор функций выполнения - оракулу."},"transferOwnership(address)":{"notice":"Allows an owner to begin transferring ownership to a new address, pending."},"withdrawLink()":{"notice":"Allow withdraw of Link tokens from the contract"}},"version":1}}}}