{"contracts/EduOracle.sol":{"EduOracle":{"abi":[{"inputs":[{"internalType":"address","name":"vrfCoordinator","type":"address"},{"internalType":"address","name":"link","type":"address"},{"internalType":"bytes32","name":"_keyhash","type":"bytes32"},{"internalType":"uint256","name":"_fee","type":"uint256"}],"stateMutability":"nonpayable","type":"constructor"},{"anonymous":false,"inputs":[{"indexed":false,"internalType":"bytes32","name":"","type":"bytes32"},{"indexed":false,"internalType":"uint256","name":"","type":"uint256"}],"name":"LuckyStudent","type":"event"},{"anonymous":false,"inputs":[{"indexed":false,"internalType":"bytes32","name":"","type":"bytes32"},{"indexed":false,"internalType":"uint256","name":"","type":"uint256"}],"name":"RandomnessRequested","type":"event"},{"anonymous":false,"inputs":[{"indexed":false,"internalType":"uint256","name":"","type":"uint256"},{"indexed":false,"internalType":"uint256","name":"","type":"uint256"}],"name":"StudentCreated","type":"event"},{"inputs":[{"internalType":"uint256","name":"_groupId","type":"uint256"}],"name":"createStudent","outputs":[],"stateMutability":"payable","type":"function"},{"inputs":[{"internalType":"uint256","name":"_studentId","type":"uint256"}],"name":"isLucky","outputs":[],"stateMutability":"nonpayable","type":"function"},{"inputs":[{"internalType":"bytes32","name":"requestId","type":"bytes32"},{"internalType":"uint256","name":"randomness","type":"uint256"}],"name":"rawFulfillRandomness","outputs":[],"stateMutability":"nonpayable","type":"function"}],"devdoc":{"kind":"dev","methods":{},"version":1},"evm":{"bytecode":{"linkReferences":{},"object":"60c060405234801561001057600080fd5b5060405161083338038061083383398101604081905261002f9161007d565b6001600160a01b0393841660a05292909116608052600555600655600780546001600160a01b031916331790556100c0565b80516001600160a01b038116811461007857600080fd5b919050565b6000806000806080858703121561009357600080fd5b61009c85610061565b93506100aa60208601610061565b6040860151606090960151949790965092505050565b60805160a0516107406100f360003960008181610257015261041d01526000818161012801526103ee01526107406000f3fe6080604052600436106100345760003560e01c806377cfad251461003957806394985ddd1461005b578063b10bfa581461007b575b600080fd5b34801561004557600080fd5b506100596100543660046105ed565b61008e565b005b34801561006757600080fd5b50610059610076366004610606565b61024c565b6100596100893660046105ed565b6102d2565b6007546001600160a01b031633146100f75760405162461bcd60e51b815260206004820152602160248201527f4f6e6c792061646d696e2063616e2063616c6c20746869732066756e6374696f6044820152603760f91b60648201526084015b60405180910390fd5b6006546040517f70a082310000000000000000000000000000000000000000000000000000000081523060048201527f00000000000000000000000000000000000000000000000000000000000000006001600160a01b0316906370a0823190602401602060405180830381865afa158015610177573d6000803e3d6000fd5b505050506040513d601f19601f8201168201806040525081019061019b9190610628565b10156101e95760405162461bcd60e51b815260206004820152600f60248201527f4e6f7420656e6f756768204c494e4b000000000000000000000000000000000060448201526064016100ee565b60006101f96005546006546103ea565b60008181526003602090815260409182902085905581518381529081018590529192507f49cdaa45e000eb9a419ae3b028f7f7bec2179153ebe33293f31286642842132691015b60405180910390a15050565b336001600160a01b037f000000000000000000000000000000000000000000000000000000000000000016146102c45760405162461bcd60e51b815260206004820152601f60248201527f4f6e6c7920565246436f6f7264696e61746f722063616e2066756c66696c6c0060448201526064016100ee565b6102ce8282610565565b5050565b6007546001600160a01b031633146103365760405162461bcd60e51b815260206004820152602160248201527f4f6e6c792061646d696e2063616e2063616c6c20746869732066756e6374696f6044820152603760f91b60648201526084016100ee565b6000604051806060016040528061034c60015490565b8152602001838152602001600015158152509050806002600061036e60015490565b8152602080820192909252604090810160002083518155918301516001808401919091559201516002909101805460ff1916911515919091179055805481019055805160208083015160408051938452918301527f29358ba910ee1777e26b0ecfe36155daf0293714fc5dad62ec4287dda7f83c049101610240565b60007f00000000000000000000000000000000000000000000000000000000000000006001600160a01b0316634000aea07f00000000000000000000000000000000000000000000000000000000000000008486600060405160200161045a929190918252602082015260400190565b6040516020818303038152906040526040518463ffffffff1660e01b815260040161048793929190610641565b6020604051808303816000875af11580156104a6573d6000803e3d6000fd5b505050506040513d601f19601f820116820180604052508101906104ca91906106a7565b5060008381526020818152604080832054815180840188905280830185905230606082015260808082018390528351808303909101815260a0909101909252815191830191909120868452929091526105249060016106d0565b600085815260208181526040918290209290925580518083018790528082019390935280518084038201815260609093019052815191012090505b92915050565b6000828152600360209081526040808320548084526002928390529220908101805460ff191660011790558260088111156105e65760008581526003602090815260408083209290925583548251888152918201527fdf8036919cb6d09e246c2ed9944e2a2cb1b7db00fecf5fb47a136588025b0fa1910160405180910390a15b5050505050565b6000602082840312156105ff57600080fd5b5035919050565b6000806040838503121561061957600080fd5b50508035926020909101359150565b60006020828403121561063a57600080fd5b5051919050565b6001600160a01b038416815260006020848184015260606040840152835180606085015260005b8181101561068457858101830151858201608001528201610668565b506000608082860101526080601f19601f83011685010192505050949350505050565b6000602082840312156106b957600080fd5b815180151581146106c957600080fd5b9392505050565b8082018082111561055f577f4e487b7100000000000000000000000000000000000000000000000000000000600052601160045260246000fdfea2646970667358221220b3765dbf39ea4e39985045e991ef712e43b15433c45e6a27a0e430d7456c6e0e64736f6c63430008110033","opcodes":"PUSH1 0xC0 PUSH1 0x40 MSTORE CALLVALUE DUP1 ISZERO PUSH2 0x10 JUMPI PUSH1 0x0 DUP1 REVERT JUMPDEST POP PUSH1 0x40 MLOAD PUSH2 0x833 CODESIZE SUB DUP1 PUSH2 0x833 DUP4 CODECOPY DUP2 ADD PUSH1 0x40 DUP2 SWAP1 MSTORE PUSH2 0x2F SWAP2 PUSH2 0x7D JUMP JUMPDEST PUSH1 0x1 PUSH1 0x1 PUSH1 0xA0 SHL SUB SWAP4 DUP5 AND PUSH1 0xA0 MSTORE SWAP3 SWAP1 SWAP2 AND PUSH1 0x80 MSTORE PUSH1 0x5 SSTORE PUSH1 0x6 SSTORE PUSH1 0x7 DUP1 SLOAD PUSH1 0x1 PUSH1 0x1 PUSH1 0xA0 SHL SUB NOT AND CALLER OR SWAP1 SSTORE PUSH2 0xC0 JUMP JUMPDEST DUP1 MLOAD PUSH1 0x1 PUSH1 0x1 PUSH1 0xA0 SHL SUB DUP2 AND DUP2 EQ PUSH2 0x78 JUMPI PUSH1 0x0 DUP1 REVERT JUMPDEST SWAP2 SWAP1 POP JUMP JUMPDEST PUSH1 0x0 DUP1 PUSH1 0x0 DUP1 PUSH1 0x80 DUP6 DUP8 SUB SLT ISZERO PUSH2 0x93 JUMPI PUSH1 0x0 DUP1 REVERT JUMPDEST PUSH2 0x9C DUP6 PUSH2 0x61 JUMP JUMPDEST SWAP4 POP PUSH2 0xAA PUSH1 0x20 DUP7 ADD PUSH2 0x61 JUMP JUMPDEST PUSH1 0x40 DUP7 ADD MLOAD PUSH1 0x60 SWAP1 SWAP7 ADD MLOAD SWAP5 SWAP8 SWAP1 SWAP7 POP SWAP3 POP POP POP JUMP JUMPDEST PUSH1 0x80 MLOAD PUSH1 0xA0 MLOAD PUSH2 0x740 PUSH2 0xF3 PUSH1 0x0 CODECOPY PUSH1 0x0 DUP2 DUP2 PUSH2 0x257 ADD MSTORE PUSH2 0x41D ADD MSTORE PUSH1 0x0 DUP2 DUP2 PUSH2 0x128 ADD MSTORE PUSH2 0x3EE ADD MSTORE PUSH2 0x740 PUSH1 0x0 RETURN INVALID PUSH1 0x80 PUSH1 0x40 MSTORE PUSH1 0x4 CALLDATASIZE LT PUSH2 0x34 JUMPI PUSH1 0x0 CALLDATALOAD PUSH1 0xE0 SHR DUP1 PUSH4 0x77CFAD25 EQ PUSH2 0x39 JUMPI DUP1 PUSH4 0x94985DDD EQ PUSH2 0x5B JUMPI DUP1 PUSH4 0xB10BFA58 EQ PUSH2 0x7B JUMPI JUMPDEST PUSH1 0x0 DUP1 REVERT JUMPDEST CALLVALUE DUP1 ISZERO PUSH2 0x45 JUMPI PUSH1 0x0 DUP1 REVERT JUMPDEST POP PUSH2 0x59 PUSH2 0x54 CALLDATASIZE PUSH1 0x4 PUSH2 0x5ED JUMP JUMPDEST PUSH2 0x8E JUMP JUMPDEST STOP JUMPDEST CALLVALUE DUP1 ISZERO PUSH2 0x67 JUMPI PUSH1 0x0 DUP1 REVERT JUMPDEST POP PUSH2 0x59 PUSH2 0x76 CALLDATASIZE PUSH1 0x4 PUSH2 0x606 JUMP JUMPDEST PUSH2 0x24C JUMP JUMPDEST PUSH2 0x59 PUSH2 0x89 CALLDATASIZE PUSH1 0x4 PUSH2 0x5ED JUMP JUMPDEST PUSH2 0x2D2 JUMP JUMPDEST PUSH1 0x7 SLOAD PUSH1 0x1 PUSH1 0x1 PUSH1 0xA0 SHL SUB AND CALLER EQ PUSH2 0xF7 JUMPI PUSH1 0x40 MLOAD PUSH3 0x461BCD PUSH1 0xE5 SHL DUP2 MSTORE PUSH1 0x20 PUSH1 0x4 DUP3 ADD MSTORE PUSH1 0x21 PUSH1 0x24 DUP3 ADD MSTORE PUSH32 0x4F6E6C792061646D696E2063616E2063616C6C20746869732066756E6374696F PUSH1 0x44 DUP3 ADD MSTORE PUSH1 0x37 PUSH1 0xF9 SHL PUSH1 0x64 DUP3 ADD MSTORE PUSH1 0x84 ADD JUMPDEST PUSH1 0x40 MLOAD DUP1 SWAP2 SUB SWAP1 REVERT JUMPDEST PUSH1 0x6 SLOAD PUSH1 0x40 MLOAD PUSH32 0x70A0823100000000000000000000000000000000000000000000000000000000 DUP2 MSTORE ADDRESS PUSH1 0x4 DUP3 ADD MSTORE PUSH32 0x0 PUSH1 0x1 PUSH1 0x1 PUSH1 0xA0 SHL SUB AND SWAP1 PUSH4 0x70A08231 SWAP1 PUSH1 0x24 ADD PUSH1 0x20 PUSH1 0x40 MLOAD DUP1 DUP4 SUB DUP2 DUP7 GAS STATICCALL ISZERO DUP1 ISZERO PUSH2 0x177 JUMPI RETURNDATASIZE PUSH1 0x0 DUP1 RETURNDATACOPY RETURNDATASIZE PUSH1 0x0 REVERT JUMPDEST POP POP POP POP PUSH1 0x40 MLOAD RETURNDATASIZE PUSH1 0x1F NOT PUSH1 0x1F DUP3 ADD AND DUP3 ADD DUP1 PUSH1 0x40 MSTORE POP DUP2 ADD SWAP1 PUSH2 0x19B SWAP2 SWAP1 PUSH2 0x628 JUMP JUMPDEST LT ISZERO PUSH2 0x1E9 JUMPI PUSH1 0x40 MLOAD PUSH3 0x461BCD PUSH1 0xE5 SHL DUP2 MSTORE PUSH1 0x20 PUSH1 0x4 DUP3 ADD MSTORE PUSH1 0xF PUSH1 0x24 DUP3 ADD MSTORE PUSH32 0x4E6F7420656E6F756768204C494E4B0000000000000000000000000000000000 PUSH1 0x44 DUP3 ADD MSTORE PUSH1 0x64 ADD PUSH2 0xEE JUMP JUMPDEST PUSH1 0x0 PUSH2 0x1F9 PUSH1 0x5 SLOAD PUSH1 0x6 SLOAD PUSH2 0x3EA JUMP JUMPDEST PUSH1 0x0 DUP2 DUP2 MSTORE PUSH1 0x3 PUSH1 0x20 SWAP1 DUP2 MSTORE PUSH1 0x40 SWAP2 DUP3 SWAP1 KECCAK256 DUP6 SWAP1 SSTORE DUP2 MLOAD DUP4 DUP2 MSTORE SWAP1 DUP2 ADD DUP6 SWAP1 MSTORE SWAP2 SWAP3 POP PUSH32 0x49CDAA45E000EB9A419AE3B028F7F7BEC2179153EBE33293F312866428421326 SWAP2 ADD JUMPDEST PUSH1 0x40 MLOAD DUP1 SWAP2 SUB SWAP1 LOG1 POP POP JUMP JUMPDEST CALLER PUSH1 0x1 PUSH1 0x1 PUSH1 0xA0 SHL SUB PUSH32 0x0 AND EQ PUSH2 0x2C4 JUMPI PUSH1 0x40 MLOAD PUSH3 0x461BCD PUSH1 0xE5 SHL DUP2 MSTORE PUSH1 0x20 PUSH1 0x4 DUP3 ADD MSTORE PUSH1 0x1F PUSH1 0x24 DUP3 ADD MSTORE PUSH32 0x4F6E6C7920565246436F6F7264696E61746F722063616E2066756C66696C6C00 PUSH1 0x44 DUP3 ADD MSTORE PUSH1 0x64 ADD PUSH2 0xEE JUMP JUMPDEST PUSH2 0x2CE DUP3 DUP3 PUSH2 0x565 JUMP JUMPDEST POP POP JUMP JUMPDEST PUSH1 0x7 SLOAD PUSH1 0x1 PUSH1 0x1 PUSH1 0xA0 SHL SUB AND CALLER EQ PUSH2 0x336 JUMPI PUSH1 0x40 MLOAD PUSH3 0x461BCD PUSH1 0xE5 SHL DUP2 MSTORE PUSH1 0x20 PUSH1 0x4 DUP3 ADD MSTORE PUSH1 0x21 PUSH1 0x24 DUP3 ADD MSTORE PUSH32 0x4F6E6C792061646D696E2063616E2063616C6C20746869732066756E6374696F PUSH1 0x44 DUP3 ADD MSTORE PUSH1 0x37 PUSH1 0xF9 SHL PUSH1 0x64 DUP3 ADD MSTORE PUSH1 0x84 ADD PUSH2 0xEE JUMP JUMPDEST PUSH1 0x0 PUSH1 0x40 MLOAD DUP1 PUSH1 0x60 ADD PUSH1 0x40 MSTORE DUP1 PUSH2 0x34C PUSH1 0x1 SLOAD SWAP1 JUMP JUMPDEST DUP2 MSTORE PUSH1 0x20 ADD DUP4 DUP2 MSTORE PUSH1 0x20 ADD PUSH1 0x0 ISZERO ISZERO DUP2 MSTORE POP SWAP1 POP DUP1 PUSH1 0x2 PUSH1 0x0 PUSH2 0x36E PUSH1 0x1 SLOAD SWAP1 JUMP JUMPDEST DUP2 MSTORE PUSH1 0x20 DUP1 DUP3 ADD SWAP3 SWAP1 SWAP3 MSTORE PUSH1 0x40 SWAP1 DUP2 ADD PUSH1 0x0 KECCAK256 DUP4 MLOAD DUP2 SSTORE SWAP2 DUP4 ADD MLOAD PUSH1 0x1 DUP1 DUP5 ADD SWAP2 SWAP1 SWAP2 SSTORE SWAP3 ADD MLOAD PUSH1 0x2 SWAP1 SWAP2 ADD DUP1 SLOAD PUSH1 0xFF NOT AND SWAP2 ISZERO ISZERO SWAP2 SWAP1 SWAP2 OR SWAP1 SSTORE DUP1 SLOAD DUP2 ADD SWAP1 SSTORE DUP1 MLOAD PUSH1 0x20 DUP1 DUP4 ADD MLOAD PUSH1 0x40 DUP1 MLOAD SWAP4 DUP5 MSTORE SWAP2 DUP4 ADD MSTORE PUSH32 0x29358BA910EE1777E26B0ECFE36155DAF0293714FC5DAD62EC4287DDA7F83C04 SWAP2 ADD PUSH2 0x240 JUMP JUMPDEST PUSH1 0x0 PUSH32 0x0 PUSH1 0x1 PUSH1 0x1 PUSH1 0xA0 SHL SUB AND PUSH4 0x4000AEA0 PUSH32 0x0 DUP5 DUP7 PUSH1 0x0 PUSH1 0x40 MLOAD PUSH1 0x20 ADD PUSH2 0x45A SWAP3 SWAP2 SWAP1 SWAP2 DUP3 MSTORE PUSH1 0x20 DUP3 ADD MSTORE PUSH1 0x40 ADD SWAP1 JUMP JUMPDEST PUSH1 0x40 MLOAD PUSH1 0x20 DUP2 DUP4 SUB SUB DUP2 MSTORE SWAP1 PUSH1 0x40 MSTORE PUSH1 0x40 MLOAD DUP5 PUSH4 0xFFFFFFFF AND PUSH1 0xE0 SHL DUP2 MSTORE PUSH1 0x4 ADD PUSH2 0x487 SWAP4 SWAP3 SWAP2 SWAP1 PUSH2 0x641 JUMP JUMPDEST PUSH1 0x20 PUSH1 0x40 MLOAD DUP1 DUP4 SUB DUP2 PUSH1 0x0 DUP8 GAS CALL ISZERO DUP1 ISZERO PUSH2 0x4A6 JUMPI RETURNDATASIZE PUSH1 0x0 DUP1 RETURNDATACOPY RETURNDATASIZE PUSH1 0x0 REVERT JUMPDEST POP POP POP POP PUSH1 0x40 MLOAD RETURNDATASIZE PUSH1 0x1F NOT PUSH1 0x1F DUP3 ADD AND DUP3 ADD DUP1 PUSH1 0x40 MSTORE POP DUP2 ADD SWAP1 PUSH2 0x4CA SWAP2 SWAP1 PUSH2 0x6A7 JUMP JUMPDEST POP PUSH1 0x0 DUP4 DUP2 MSTORE PUSH1 0x20 DUP2 DUP2 MSTORE PUSH1 0x40 DUP1 DUP4 KECCAK256 SLOAD DUP2 MLOAD DUP1 DUP5 ADD DUP9 SWAP1 MSTORE DUP1 DUP4 ADD DUP6 SWAP1 MSTORE ADDRESS PUSH1 0x60 DUP3 ADD MSTORE PUSH1 0x80 DUP1 DUP3 ADD DUP4 SWAP1 MSTORE DUP4 MLOAD DUP1 DUP4 SUB SWAP1 SWAP2 ADD DUP2 MSTORE PUSH1 0xA0 SWAP1 SWAP2 ADD SWAP1 SWAP3 MSTORE DUP2 MLOAD SWAP2 DUP4 ADD SWAP2 SWAP1 SWAP2 KECCAK256 DUP7 DUP5 MSTORE SWAP3 SWAP1 SWAP2 MSTORE PUSH2 0x524 SWAP1 PUSH1 0x1 PUSH2 0x6D0 JUMP JUMPDEST PUSH1 0x0 DUP6 DUP2 MSTORE PUSH1 0x20 DUP2 DUP2 MSTORE PUSH1 0x40 SWAP2 DUP3 SWAP1 KECCAK256 SWAP3 SWAP1 SWAP3 SSTORE DUP1 MLOAD DUP1 DUP4 ADD DUP8 SWAP1 MSTORE DUP1 DUP3 ADD SWAP4 SWAP1 SWAP4 MSTORE DUP1 MLOAD DUP1 DUP5 SUB DUP3 ADD DUP2 MSTORE PUSH1 0x60 SWAP1 SWAP4 ADD SWAP1 MSTORE DUP2 MLOAD SWAP2 ADD KECCAK256 SWAP1 POP JUMPDEST SWAP3 SWAP2 POP POP JUMP JUMPDEST PUSH1 0x0 DUP3 DUP2 MSTORE PUSH1 0x3 PUSH1 0x20 SWAP1 DUP2 MSTORE PUSH1 0x40 DUP1 DUP4 KECCAK256 SLOAD DUP1 DUP5 MSTORE PUSH1 0x2 SWAP3 DUP4 SWAP1 MSTORE SWAP3 KECCAK256 SWAP1 DUP2 ADD DUP1 SLOAD PUSH1 0xFF NOT AND PUSH1 0x1 OR SWAP1 SSTORE DUP3 PUSH1 0x8 DUP2 GT ISZERO PUSH2 0x5E6 JUMPI PUSH1 0x0 DUP6 DUP2 MSTORE PUSH1 0x3 PUSH1 0x20 SWAP1 DUP2 MSTORE PUSH1 0x40 DUP1 DUP4 KECCAK256 SWAP3 SWAP1 SWAP3 SSTORE DUP4 SLOAD DUP3 MLOAD DUP9 DUP2 MSTORE SWAP2 DUP3 ADD MSTORE PUSH32 0xDF8036919CB6D09E246C2ED9944E2A2CB1B7DB00FECF5FB47A136588025B0FA1 SWAP2 ADD PUSH1 0x40 MLOAD DUP1 SWAP2 SUB SWAP1 LOG1 JUMPDEST POP POP POP POP POP JUMP JUMPDEST PUSH1 0x0 PUSH1 0x20 DUP3 DUP5 SUB SLT ISZERO PUSH2 0x5FF JUMPI PUSH1 0x0 DUP1 REVERT JUMPDEST POP CALLDATALOAD SWAP2 SWAP1 POP JUMP JUMPDEST PUSH1 0x0 DUP1 PUSH1 0x40 DUP4 DUP6 SUB SLT ISZERO PUSH2 0x619 JUMPI PUSH1 0x0 DUP1 REVERT JUMPDEST POP POP DUP1 CALLDATALOAD SWAP3 PUSH1 0x20 SWAP1 SWAP2 ADD CALLDATALOAD SWAP2 POP JUMP JUMPDEST PUSH1 0x0 PUSH1 0x20 DUP3 DUP5 SUB SLT ISZERO PUSH2 0x63A JUMPI PUSH1 0x0 DUP1 REVERT JUMPDEST POP MLOAD SWAP2 SWAP1 POP JUMP JUMPDEST PUSH1 0x1 PUSH1 0x1 PUSH1 0xA0 SHL SUB DUP5 AND DUP2 MSTORE PUSH1 0x0 PUSH1 0x20 DUP5 DUP2 DUP5 ADD MSTORE PUSH1 0x60 PUSH1 0x40 DUP5 ADD MSTORE DUP4 MLOAD DUP1 PUSH1 0x60 DUP6 ADD MSTORE PUSH1 0x0 JUMPDEST DUP2 DUP2 LT ISZERO PUSH2 0x684 JUMPI DUP6 DUP2 ADD DUP4 ADD MLOAD DUP6 DUP3 ADD PUSH1 0x80 ADD MSTORE DUP3 ADD PUSH2 0x668 JUMP JUMPDEST POP PUSH1 0x0 PUSH1 0x80 DUP3 DUP7 ADD ADD MSTORE PUSH1 0x80 PUSH1 0x1F NOT PUSH1 0x1F DUP4 ADD AND DUP6 ADD ADD SWAP3 POP POP POP SWAP5 SWAP4 POP POP POP POP JUMP JUMPDEST PUSH1 0x0 PUSH1 0x20 DUP3 DUP5 SUB SLT ISZERO PUSH2 0x6B9 JUMPI PUSH1 0x0 DUP1 REVERT JUMPDEST DUP2 MLOAD DUP1 ISZERO ISZERO DUP2 EQ PUSH2 0x6C9 JUMPI PUSH1 0x0 DUP1 REVERT JUMPDEST SWAP4 SWAP3 POP POP POP JUMP JUMPDEST DUP1 DUP3 ADD DUP1 DUP3 GT ISZERO PUSH2 0x55F JUMPI PUSH32 0x4E487B7100000000000000000000000000000000000000000000000000000000 PUSH1 0x0 MSTORE PUSH1 0x11 PUSH1 0x4 MSTORE PUSH1 0x24 PUSH1 0x0 REVERT INVALID LOG2 PUSH5 0x6970667358 0x22 SLT KECCAK256 0xB3 PUSH23 0x5DBF39EA4E39985045E991EF712E43B15433C45E6A27A0 0xE4 ADDRESS 0xD7 GASLIMIT PUSH13 0x6E0E64736F6C63430008110033 "},"gasEstimates":{"creation":{"codeDepositCost":"371200","executionCost":"infinite","totalCost":"infinite"},"external":{"createStudent(uint256)":"100852","isLucky(uint256)":"infinite","rawFulfillRandomness(bytes32,uint256)":"infinite"},"internal":{"fulfillRandomness(bytes32,uint256)":"infinite"}},"methodIdentifiers":{"createStudent(uint256)":"b10bfa58","isLucky(uint256)":"77cfad25","rawFulfillRandomness(bytes32,uint256)":"94985ddd"}},"storageLayout":{"storage":[{"astId":79,"contract":"contracts/EduOracle.sol:EduOracle","label":"nonces","offset":0,"slot":"0","type":"t_mapping(t_bytes32,t_uint256)"},{"astId":1386,"contract":"contracts/EduOracle.sol:EduOracle","label":"studentId","offset":0,"slot":"1","type":"t_struct(Counter)982_storage"},{"astId":1391,"contract":"contracts/EduOracle.sol:EduOracle","label":"students","offset":0,"slot":"2","type":"t_mapping(t_uint256,t_struct(Student)1383_storage)"},{"astId":1395,"contract":"contracts/EduOracle.sol:EduOracle","label":"studentsRandomnessRequest","offset":0,"slot":"3","type":"t_mapping(t_bytes32,t_uint256)"},{"astId":1399,"contract":"contracts/EduOracle.sol:EduOracle","label":"playersCount","offset":0,"slot":"4","type":"t_mapping(t_uint256,t_uint256)"},{"astId":1401,"contract":"contracts/EduOracle.sol:EduOracle","label":"keyHash","offset":0,"slot":"5","type":"t_bytes32"},{"astId":1403,"contract":"contracts/EduOracle.sol:EduOracle","label":"fee","offset":0,"slot":"6","type":"t_uint256"},{"astId":1405,"contract":"contracts/EduOracle.sol:EduOracle","label":"admin","offset":0,"slot":"7","type":"t_address"}],"types":{"t_address":{"encoding":"inplace","label":"address","numberOfBytes":"20"},"t_bool":{"encoding":"inplace","label":"bool","numberOfBytes":"1"},"t_bytes32":{"encoding":"inplace","label":"bytes32","numberOfBytes":"32"},"t_mapping(t_bytes32,t_uint256)":{"encoding":"mapping","key":"t_bytes32","label":"mapping(bytes32 => uint256)","numberOfBytes":"32","value":"t_uint256"},"t_mapping(t_uint256,t_struct(Student)1383_storage)":{"encoding":"mapping","key":"t_uint256","label":"mapping(uint256 => struct EduOracle.Student)","numberOfBytes":"32","value":"t_struct(Student)1383_storage"},"t_mapping(t_uint256,t_uint256)":{"encoding":"mapping","key":"t_uint256","label":"mapping(uint256 => uint256)","numberOfBytes":"32","value":"t_uint256"},"t_struct(Counter)982_storage":{"encoding":"inplace","label":"struct Counters.Counter","members":[{"astId":981,"contract":"contracts/EduOracle.sol:EduOracle","label":"_value","offset":0,"slot":"0","type":"t_uint256"}],"numberOfBytes":"32"},"t_struct(Student)1383_storage":{"encoding":"inplace","label":"struct EduOracle.Student","members":[{"astId":1378,"contract":"contracts/EduOracle.sol:EduOracle","label":"studentId","offset":0,"slot":"0","type":"t_uint256"},{"astId":1380,"contract":"contracts/EduOracle.sol:EduOracle","label":"groupId","offset":0,"slot":"1","type":"t_uint256"},{"astId":1382,"contract":"contracts/EduOracle.sol:EduOracle","label":"isLucky","offset":0,"slot":"2","type":"t_bool"}],"numberOfBytes":"96"},"t_uint256":{"encoding":"inplace","label":"uint256","numberOfBytes":"32"}}},"userdoc":{"kind":"user","methods":{},"version":1}}}}